:10000000000404000000000012120000AA1000000A
:10001000CE100000F2100000161100003A1100008E
:100020001212000012120000121200001212000040
:1000300012120000321200008A1400001212000096
:1000400012120000EA120000341300001212000025
:10005000A2140000841300003A14000012120000E1
:10006000921400001212000012120000121200007E
:1000700012120000121200001212000012120000F0
:1000800012120000121200001212000012120000E0
:100090001212000068130000121200001212000079
:1000A00012120000121200001212000012120000C0
:1000B00012120000121200001212000012120000B0
:1000C00012120000121200001212000012120000A0
:1000D0001212000012120000121200001212000090
:1000E0001212000012120000121200001212000080
:1000F0001212000012120000121200001212000070
:10010000121200001212000012120000121200005F
:10011000121200001212000012120000121200004F
:10012000121200001212000012120000121200003F
:10013000121200001212000012120000121200002F
:10014000121200001212000012120000121200001F
:10015000121200001212000012120000121200000F
:1001600012120000121200001212000012120000FF
:1001700012120000121200001212000012120000EF
:1001800012120000121200001212000012120000DF
:1001900012120000121200001212000012120000CF
:1001A00012120000121200001212000012120000BF
:1001B00012120000121200001212000012120000AF
:1001C000121200001212000012120000121200009F
:1001D000121200001212000012120000121200008F
:1001E000D21400000A15000034150000121200009D
:1001F000121200001212000012120000121200006F
:10020800121200005E11000082110000A611000009
:10021800CA110000EE1100001212000012120000B4
:100228001212000012120000121200003212000016
:100238008A1400001212000012120000EA120000D4
:100248003413000012120000A214000084130000EE
:100258003A1400001212000092140000121200005A
:1002680012120000121200001212000012120000F6
:1002780012120000121200001212000012120000E6
:10028800121200001212000012120000681300007F
:1002980012120000121200001212000012120000C6
:1002A80012120000121200001212000012120000B6
:1002B80012120000121200001212000012120000A6
:1002C8001212000012120000121200001212000096
:1002D8001212000012120000121200001212000086
:1002E8001212000012120000121200001212000076
:1002F8001212000012120000121200001212000066
:100308001212000012120000121200001212000055
:100318001212000012120000121200001212000045
:100328001212000012120000121200001212000035
:100338001212000012120000121200001212000025
:100348001212000012120000121200001212000015
:100358001212000012120000121200001212000005
:1003680012120000121200001212000012120000F5
:1003780012120000121200001212000012120000E5
:1003880012120000121200001212000012120000D5
:1003980012120000121200001212000012120000C5
:1003A80012120000121200001212000012120000B5
:1003B80012120000121200001212000012120000A5
:1003C8001212000012120000121200001212000095
:1003D8001212000012120000D21400000A150000C8
:1003E8003415000012120000121200001212000050
:0803F8001212000012120000B5
:102000000A000000AFBF20000EBD22000E018800B4
:1020100000000000000020000000E000020032008C
:1020200000012000200288000C000700805B2400D3
:102030000100200011000700000020000000E00067
:10204000020032000000020000000000AE46020064
:10205000000000000040DA000000FE004440A9003B
:10206000001C20000000E0000300320000002000FF
:10207000A00188004440A8000000060091018800EB
:10208000800078000000EB0015003700E28040007F
:1020900032A0B4009101BA00E280400032A0B40046
:1020A0009102BA00E280400032A0B4000002EB00CE
:1020B000472BDE00F507B200602CE10004003A0077
:1020C0000059EB008301E900FDFF3E0004003700EA
:1020D0006128E100010032000082EB000B000700E4
:1020E00011C3BA001101BA000604E00003003A006F
:1020F0000200E000E5FF3A0000000600F607B2002B
:102100009601880082007800F5FF37003159BA0047
:102110008301E9000C0032002159BA008301E90073
:10212000080032000400E00003003A00E2804000B2
:1021300032A0B400F5FF370011D9BA008301E900DD
:10214000FAFF3A008100E800E180400032A0B400CC
:1021500000000600809FBE00821F78000000FA0089
:102160008020A900201680004A00DE006140600047
:102170000004A200614060000080FB00610060007C
:102180004A00DD0022168000F1BF2F0081006100AF
:102190000100700020168800F2FF3700809FBE000B
:1021A000821F78000000FA008060A90020168000DD
:1021B0004A00DE00614060000004A200614060004F
:1021C0000080FB00610060004A00DD0022168000F4
:1021D000F1BF2F008100610001007000201688000F
:1021E000F2FF3700809FBE00821F78000000FA00D7
:1021F0008040A900201680004A00DE006140600097
:102200000004A200614060000080FB0061006000EB
:102210004A00DD0022168000F1BF2F00810061001E
:102220000100700020168800F2FF3700809FBE007A
:10223000821F78000000FA008080A900201680002C
:102240004A00DE00614060000004A20061406000BE
:102250000080FB00610060004A00DD002216800063
:10226000F1BF2F008100610001007000201688007E
:10227000F2FF3700809FBE00821F78000000FA0046
:1022800080A0A900201680004A00DE0061406000A6
:102290000004A200614060000080FB00610060005B
:1022A0004A00DD0022168000F1BF2F00810061008E
:1022B0000100700020168800F2FF3700809FBE00EA
:1022C000821F78000000FA008020A90020168000FC
:1022D0004A00DE00614060000004A200614060002E
:1022E0000080FB00610060004A00DD0022168000D3
:1022F000F1BF2F00810061000100700020168800EE
:10230000F2FF3700809FBE00821F78000000FA00B5
:102310008060A900201680004A00DE006140600055
:102320000004A200614060000080FB0061006000CA
:102330004A00DD0022168000F1BF2F0081006100FD
:102340000100700020168800F2FF3700809FBE0059
:10235000821F78000000FA008040A900201680004B
:102360004A00DE00614060000004A200614060009D
:102370000080FB00610060004A00DD002216800042
:10238000F1BF2F008100610001007000201688005D
:10239000F2FF3700809FBE00821F78000000FA0025
:1023A0008080A900201680004A00DE0061406000A5
:1023B0000004A200614060000080FB00610060003A
:1023C0004A00DD0022168000F1BF2F00810061006D
:1023D0000100700020168800F2FF3700809FBE00C9
:1023E000821F78000000FA0080A0A900201680005B
:1023F0004A00DE00614060000004A200614060000D
:102400000080FB00610060004A00DD0022168000B1
:10241000F1BF2F00810061000100700020168800CC
:10242000F2FF3700809FBE00821F78000000FA0094
:10243000E01680004F00DE00004078000004A2009B
:10244000614060000080FB004F00DD00E21680006C
:10245000F1FF27008100610001007000E016880094
:10246000F3FF3700809FBE00821F78000000FA0053
:102470008460A9004144800010C0B300E88F500080
:1024800001003E000040EB008100E800414488006C
:102490000004E000480032008828EF00E04580009A
:1024A0000000E800E0458800504780000000E80098
:1024B00050478800904780000000E800904788005F
:1024C000A04580000000E800A0458800B0458000DD
:1024D0000000E800B0458800704680000000E80079
:1024E00070468800F04280000000E800F04288005A
:1024F000204780000000E80020478800C04380009B
:102500000000E800C0438800C0438000E20F500094
:1025100001003600E068EF00004480000000E800A1
:1025200000448800104480000000E8001044880047
:10253000004580001145800061004000E0804800B7
:102540000045880011458800804580000000E800B3
:1025500080458800704480000000E80070448800D6
:10256000604780000000E80060478800D04380009A
:102570000000E800D0438800304780000000E800F9
:1025800030478800201680004900DE00614060006E
:102590000004A200614060000080FB006100600058
:1025A0004900DD0022168000F1DF2F00810061006C
:1025B0000100700020168800E04380000000E80061
:1025C000E04388000080FA004F0178004F00BE0011
:1025D00000400600809FBE00829FBE00849FBE0018
:1025E000869FBE000000FA0084E0A90032E8A9003E
:1025F000D988A800CD82A900A08320003002BE00A7
:102600002003BE0010002000010020006011B8006F
:102610000000420081804A0002014B0083814B0090
:10262000A4832000009ABE000292BE0030448000C5
:102630000000E8003044880011E1A90013E1A9007E
:102640008500A90023E4A900E422A9008E28EF0058
:102650000080FA004F03BE004F02BE004F01BE00D3
:102660004F00BE0000400600809FBE000000FA0040
:102670008500A900914180000008200000806000D2
:102680000000E0000700320032E8A900C0418000ED
:10269000700888000A21EF0023E4A900E422A900C1
:1026A0000800370032E8A80023E4A800B041800009
:1026B000700888000A21EF001421EF008760A9004C
:1026C0001FE1A8000080FA004F00BE000040060095
:1026D000809FBE000000FA008760A9009141800041
:1026E00000082000008060000000E00002003200CE
:1026F0000BA3A800010037001FE1A9000080FA0029
:102700004F00BE0000400600809FBE00829FBE00BA
:102710000000FA008560A900E0C8BF008080FB00CF
:1027200032118000824178000290200003F178008D
:102730000040E800E0E8B7007828EF00E0C8BF00FC
:10274000E14F500007003A000090200090407800D0
:1027500050C5B30080CF500042003200E068EF0067
:1027600040003700E0C8BF00E24F50000B003A00C5
:10277000109020009040780000C9B30080CF500036
:1027800004003A00109020001040780074E8B70070
:1027900034003700E068EF0032003700E0C8BF00C7
:1027A000E64F500012003A00209020009040780040
:1027B00074C8BF0080C040003090200010407800F6
:1027C00080C04000409020001040780000C04000D1
:1027D00074E8B700509020009040780074C8BF00A3
:1027E00080CF50001F003200E068EF001D0037006E
:1027F000E0C8BF00E74F500006003A00609020009C
:10280000104078000080FB0068004000B043880062
:1028100014003700E0C8BF008080FB00B043800098
:10282000808F50000F003A00D608A800E628EF007D
:10283000601680004D00DE00614060000004A200D0
:10284000614060000080FB00610060004D00DD0021
:1028500062168000F1FF2D00810061000100700010
:10286000601688000080FA004F01BE004F00BE00D5
:1028700000400600809FBE000000FA008580A9008D
:10288000E1C8BF000040E800E1E8B7000000000038
:102890001111800000102000008060000000E000A6
:1028A000FBFF3200E1C8BF008080FB0010478000C2
:1028B000808F500008003A000000000011118000D5
:1028C00000102000008060000000E000FBFF3200EC
:1028D000C4A2A9000C003700000000001111800004
:1028E00000102000008060000000E000FBFF3200CC
:1028F000E1C8BF000080FB0001A02000614078001B
:102900000080FB00201188000080FA004F00BE000C
:10291000004006000000FA008480A9000080FA0050
:10292000004006000000FA0085C0A9009540A900FB
:10293000D648A800F502A800F442A9000080FA00D9
:1029400000400600801F78000000FA008540A900C2
:1029500080448000E10F500003003200E20F50007D
:10296000070032000C003700F502A800000000004C
:102970000000000000000000F502A900060037007A
:10298000F502A800000000000000000000000000A8
:10299000F502A900000000000080FA004F00780056
:1029A00000400600809FBE00829FBE000000FA002B
:1029B00080478000021A80008001400001BF200093
:1029C00081804100820878000000E800804788008C
:1029D00000408000121A80008001400061BE20008B
:1029E00081804100820878000000E80000408800F3
:1029F00091C0A90080478000E40F500001003E0014
:102A00000AA3A8000080FA004F01BE004F00BE00DC
:102A100000400600809FBE00821F78000000FA0080
:102A200020448000211A80000001400080BC20006A
:102A3000000041000108780020448000311A800025
:102A40000001400020BD2000000041000108780086
:102A500091E0A9000CA3A8000080FA004F017800C3
:102A60004F00BE0000400600809FBE00829FBE0057
:102A70000000FA0020448000411A8000000140005C
:102A8000C0BD200000004100010878002044800003
:102A9000521A800080014000C1BD200081804100A9
:102AA000820878000000E800204488009200A90015
:102AB00020448000E40F500002003E000BA3A80059
:102AC00001003700D8E8A8000080FA004F01BE00DE
:102AD0004F00BE000040060003F0A200889FBE0029
:102AE0008A9FBE008C1F7800180107001F01330069
:102AF0006450E1004F0032006420E10052003200D7
:102B000003826C0007003B000905D0000306D000DB
:102B1000820F54000C065D000200390002003200F2
:102B200089017800030678008582550004003D0085
:102B30000003FD008103FD008502EA008B85420051
:102B4000840F720002003B0060001000E08018005B
:102B50006011B8000005EB007A28E1000A00390096
:102B600006007800C75DDD00F707B20087807500BA
:102B70002D003700828171000A0178006105600034
:102B80008180D1000080D3008502E900F9FF3B007D
:102B9000060440008784480002003B0060041400E3
:102BA000E0841C000988A300070032008A817100BC
:102BB00082817100610164008904D1000884D3001E
:102BC0008B05E800170037000978A30013003A00CE
:102BD0000B00E000130034008B05E90008044400FA
:102BE00089844C000A4474000978A3000D003A005F
:102BF0000B00E000070034008B05E90008044400E6
:102C000089844C0001003A000B0020000978A300E1
:102C1000F7FF32000001EB000200370082817100F3
:102C20000A0178008E0007000CF0A70001F0A00058
:102C3000D70037006420E10002003A00838F6C0067
:102C4000D70033000801BE000200BE00D0003700EC
:102C5000889FBE008A9FBE008C1F7800BB000700C3
:102C6000C200330003866C006450E1002E00320085
:102C70006420E100330032006150E1002F00320097
:102C80006120E1003100320085855500EB07B0007E
:102C90000900200008042000050037000804440053
:102CA00089844C000A0031000603430087834B00EF
:102CB0000001530081815B00F8FF33000203BE0076
:102CC0000800A0000804440089844C00F6FF390085
:102CD000C639DD00830173000100320013002000BB
:102CE0008904D1000884D3000998A30005003200AC
:102CF0000800A7000300A0008904D1000884D300C5
:102D00008B05E8008904D1000884D3000001EB00A2
:102D10000281D2005200070001F0A1000CF0A700D0
:102D200001F0A0009A0037006420E1009C0032000E
:102D30000801BE000200BE00F7FF37006120E1007D
:102D4000970032006000B800F3FF37000000200059
:102D500001F82700F0FF370014002000D7003700EB
:102D6000F4FF2F00D50037000001BE00620007000D
:102D70000470A70003F0A1006509B100160032003D
:102D80000D0035006828E10006003500F0FF2F0037
:102D9000F1FF27000300E00013003B0001002800C2
:102DA0000000050000004000818048008502E90025
:102DB000FCFF3A0008003700F88F420002003C0098
:102DC0008000EB00000005008100D1000080D300EE
:102DD0008502E800FCFF3A000300E00002003B002F
:102DE00060001000E0801800000006000001BE0036
:102DF000410007000470A70003F0A10003F8A3003E
:102E000013003A006509B1001000320009003500D6
:102E10006928E100020035000100280000000500DB
:102E200000004000818048008502E900FCFF3A0074
:102E300000000600F88F4200050035008100D10037
:102E40000080D3008502E800FCFF3A000000060085
:102E50008000EB00000005006011B800B2003700F0
:102E600081002000618055000B003D000B00200018
:102E700061FE2F000100E1001D003400828171001D
:102E8000610164008904D1000884D3000000E800D7
:102E9000FAFF3A0071002000610064000300700036
:102EA000020060000900320061044400E0844C002C
:102EB0000988A500050032008B05E8006808E100DC
:102EC00002003A008904D1000884D300F20F2000E8
:102ED0000258E10005003D00C75DDD00F907B200C2
:102EE0008980750008007800000006000BF82700B4
:102EF0008B00780000000500C70ADE00F107B20071
:102F0000F50FB20008003200E1CF420002003200AB
:102F10000170A00024000500810F70000100320044
:102F20000408050044000500810F700002003A000B
:102F3000140005008502E9000000400081C048003F
:102F4000FCFF3B000170A000240005000004BE004F
:102F5000E9FF07000003BE000405BE000200BE003A
:102F6000E5FF0700844F7500000006000200BE0068
:102F70006450E100050036006420E10002003600E4
:102F80000968A30001003A000800BE000160A0002B
:102F90004F0678004F05BE004F04BE00000006003B
:102FA000F0FF2F00F1FF2700F9FF3700889FBE00D8
:102FB0008A9FBE008C1F7800E4FF0700EBFF330000
:102FC00003866C006450E100240032006420E100BC
:102FD000270032006150E100220032006120E10050
:102FE000210032008B854200EB07B1000134B800AC
:102FF000003AB8000804420089844A00013AB80047
:103000000030B8008880400009014A000400330005
:103010000000400081804800020149008B05E90062
:10302000C909DD0083017000010032001300200097
:10303000C814DE004814DD004709DE001200B200AB
:10304000C808DE000884700085FF070001F0A100B9
:103050000CF0A70001F0A000CDFF37006120E100D7
:10306000CFFF32000801BE000200BE00F7FF3700AC
:103070006150E100FCFF3A00C9FF37006022B80050
:10308000060220000000D0008180D2000482D2001D
:103090008582D2000000A0000202520083825A0002
:1030A000030031000202420083824A000000A100B6
:1030B0000603E900F3FF3A0000000600889FBE0007
:1030C0008A9FBE00841F7800A0FF07004F00780091
:1030D00011003300F0FF2F00838F6C0006003B00CF
:1030E000040565000A00A7000800370009F0A600E3
:1030F0001000200008003700820F5400838F5C000E
:10310000030039001000200001003E0000002000F4
:1031100009F0A7000000EA004F05BE004F04BE0002
:103120000000E00000000600889FBE008A9FBE00ED
:1031300000827000040271000482710026003200D7
:103140000004BE000200BE006011B8006B09200040
:10315000950220000182CF000A0039000541B1002C
:103160000082CF00070039000541B1000982CF007D
:10317000040039000541B1000882CF000100390088
:103180000541B10005425200120032000A003B0026
:1031900082817100610164008100D1000080D30050
:1031A0008984D3000884D3008B05E8000442E8003A
:1031B000F7FF3A00070037000804440089844C00F8
:1031C00000004800818048008B05E9000442E900C6
:1031D000F9FF3A0022FF07004F05BE004F04BE0072
:1031E0000000060000000000C8C1000000B600009A
:1031F000FD4700000000000020C1000000B20000F8
:10320000574700000000000010C1000000940000BB
:103210004D4700000000000000C1000000760000E3
:103220004347000000000000E0C00000005800001C
:103230003947000000000000C0C00000003A000054
:103240002F47000000000000A0C00000001C00008C
:10325000254700000000000080C00000009300002F
:103260001D4700000000000040C00000000A0000F0
:10327000164700000000000000C0000000810000B0
:103280000E4700000000000080BF000000F90000B1
:1032900006470000000000000000000000E0000001
:1032A000FE46000000000000803F0000008E00008D
:1032B000F34600000000000000400000003E000057
:1032C000E8460000000000004040000000EC000064
:1032D000DC4600000000000080400000009A000072
:1032E000D146000000000000A0400000004A00009D
:1032F000C646000000000000C040000000B800000A
:10330000BD46000000000000E04000000026000074
:10331000B5460000000000000041000000940000DD
:10332000AC46000000000000104100000004000056
:10333000A4460000000000002041000000720000D0
:103340009B460000000000003041000000E8000043
:10335000944600000000000040410000005C0000B6
:103360008E460000000000005041000000D2000026
:103370008746000000000000604100000048000097
:10338000814600000000000070410000007C000049
:10339000754600000000000080410000006C000045
:1033A0006B46000000000000884100000060000043
:1033B0006146000000000000904100000050000045
:1033C0005746000000000000984100000040000047
:1033D0004D46000000000000A04100000034000045
:1033E0004346000000000000A84100000068000003
:1033F0003B46000000000000B041000000A00000BB
:103400003346000000000000B841000000D4000076
:103410002B46000000000000C04100000008000032
:103420002446000000000000C841000000400000E9
:103430001C46000000000000D0410000002C0000ED
:103440001646000000000000D841000000180000EF
:103450001046000000000000E041000000040000F1
:103460000A46000000000000E841000000F40000EF
:103470000346000000000000F041000000C0000012
:10348000FB45000000000000F8410000003800008B
:10349000F2450000000000000042000000A800000B
:1034A000E845000000000000044200000020000089
:1034B000DF45000000000000084200000098000006
:1034C000D5450000000000000C4200000010000084
:1034D000CC45000000000000104200000088000001
:1034E000C4450000000000001442000000F8000085
:1034F000BC45000000000000184200000070000001
:10350000B5450000000000001C42000000E800007B
:10351000AD450000000000002042000000600000F7
:10352000A6450000000000003442000000680000D2
:1035300088450000000000004842000000F0000044
:1035400060450000000000007042000000300000F4
:103550001B45000000000000C84200000080000081
:10356000284400000A00FA00889FBE008A9FBE001F
:103570006000B8006011B80010079800210798009B
:10358000320798004307980091418000000820000E
:10359000008060000000E0002B023A0091418000B2
:1035A00000202000008060000000E00005003200E4
:1035B000C146800000202000008060000000E00084
:1035C000070032005428EF00D668A900D928A900C6
:1035D000D948A900D968A900D8A8A900D8C8A900C5
:1035E000A0428000E40F50001B013200E40F5000A5
:1035F00009003E00E10F500067003200E10F50006B
:1036000011003900E20F500021003200E30F50009A
:10361000BA0032000C023700E70F5000E60132001A
:10362000E70F500003003E00E50F5000BE013200DE
:1036300005023700E80F5000D1003200E90F5000BA
:103640007500320000023700914180000020200008
:10365000008060000000E000E8013200250407005F
:103660000004E00003003A0020002000A04288008F
:10367000F5013700D668A9003308A800F000200043
:10368000E047880070022000A0418800EE0137006A
:10369000180407000004E0003B003A006028EF0037
:1036A0006428EF006228EF00600307000000E000DC
:1036B0000E0032000000EB00000F7800070037001A
:1036C00000BA20001E0040009040780080BA200020
:1036D0001E004000014878001E0FE8001E00780020
:1036E000E70F5000F6FF3600D8A8A800C0468000BB
:1036F000700060000000E000120032004B03070081
:103700000000E0000F0032000000EB00000F780026
:103710000800370000BA20001E00400090407800EA
:1037200080BA20001E004000680040000148780078
:103730001E0FE8001E007800E70F5000F5FF36006E
:10374000D8C8A800C14680000002200000806000A8
:103750000000E00005003A00C1468000000420009F
:10376000008060000000E000030032001000200034
:10377000A0428800B40137005428EF00D8A8A9005F
:10378000D8C8A900B00137005428EF00D8A8A90074
:10379000D8C8A900AC013700C14680000002200053
:1037A000008060000000E00096013200D1030700B5
:1037B0000004E00014003A0050C5B300FE03070007
:1037C0007228EF000000EB00000F780007003700C0
:1037D000904380004300DD001E00400081BA2000BD
:1037E00061407800F40307001E0FE8001E00780017
:1037F000E70F5000F6FF3600970107009000200009
:10380000A0428800900137005428EF00D8A8A900F2
:10381000D8C8A9008C013700C146800000042000F0
:10382000008060000000E0001A003200B1030700D1
:103830000004E00013003A0050C5B300DE030700A7
:1038400010002000904388000000EB00000F78007B
:1038500007003700904380004300DD001E00400059
:1038600081BA200061407800D30307001E0FE800F2
:103870001E007800E70F5000F6FF360076010700C3
:103880000D0037005428EF00D8A8A900D8C8A90017
:1038900009003700D948A900D968A900D668A9004D
:1038A0003308A800F0002000E047880060022000F4
:1038B000A04188005428EF00C1468000000220008B
:1038C000008060000000E00050013200C14680002E
:1038D00000042000008060000000E0004D01320084
:1038E000A1418000B0022000808F50004B013200C7
:1038F00030002000A042880053013700C1468000FC
:1039000000802000008060000000E0001200320013
:10391000C146800000402000008060000000E00000
:103920000300320080002000A042880046013700DA
:10393000D948A900D968A900D668A9003308A80009
:10394000F0002000E0478800B0022000A04188007D
:103950005428EF003C013700D948A900D968A900D4
:10396000D668A9003308A800F0002000E0478800CE
:1039700030022000A04188005428EF0032013700B7
:103980009141800000202000008060000000E000E5
:103990002F003200A08320003004BE002005BE00AE
:1039A000608520005001BE004000BE0000025400AF
:1039B00081825C0002035D0083835D00300620008D
:1039C000010020006011B8000020E10001A8E10022
:1039D00002B0E10003B8E10006003600D0458000E7
:1039E0000000E0000F013A0040002000A0428800E3
:1039F00015013700F142800000A62E00808F500094
:103A00000A013600A08320003002BE002003BE0061
:103A1000608520005001BE004000BE000020E10093
:103A200001A8E10002B0E10003B8E10006003600A1
:103A3000D04580000000E000FE003A004000200079
:103A4000A0428800000137005E28EF00FE0037002A
:103A50005428EF00FC003700260307000004E000B4
:103A600049003A0050C5B300530307000000EB00C3
:103A7000000F78000500370080BB20001E004000CA
:103A8000104078004C0307001E0FE8001E0078006D
:103A9000E70F5000F8FF3600F0C0B3004603070000
:103AA00080C7B300440307000040EB004203070057
:103AB000A08320005001BE004000BE004818DE0078
:103AC000004078003C030700A08320005001BE00A6
:103AD0004000BE0003007800004078003603070075
:103AE000A08320005001BE004000BE004810DE0050
:103AF000481ADD0000007200004078002E03070025
:103B0000A08320005001BE004000BE0002007800EB
:103B10000040780028030700A08320005001BE0069
:103B20004000BE004808DE004812DD0000007200C0
:103B30000040780020030700A08320005001BE0051
:103B40004000BE0001007800004078001A03070022
:103B5000A08320005001BE004000BE004800DE00EF
:103B6000480ADD00000072000040780012030700E0
:103B7000A08320005001BE004000BE00004078003D
:103B80000D03070003003700604380000000E800D9
:103B9000604388006000B8006011B800100798000A
:103BA000210798003207980043079800D1020700C8
:103BB0000004E00054003A0050C5B300FE020700C4
:103BC0000000EB00000F78000500370080BB2000EC
:103BD0001E00400010407800F70207001E0FE800AA
:103BE0001E007800E70F5000F8FF3600A0CAB300AF
:103BF000F1020700020307006EE8B70000030700A8
:103C00006FE8B700FE02070070E8B7000000EB00A5
:103C1000000F7800230037001E009000AE009000D7
:103C20003E019000CE019000C819DD004812DE0070
:103C3000830172004811DD00480ADE0002017200B3
:103C4000C808DD004802DE00810072004800DD0087
:103C50001007980021079800320798004307980042
:103C6000E70207000080FB008000EB006011B80055
:103C70001E029000AE0290003E039000CE03900022
:103C80000000420081804A0002014B0083814B000A
:103C90001007980021079800320798004307980002
:103CA0001E0FE8001E007800E70F5000DAFF360014
:103CB000A08320005001BE004000BE001E02900004
:103CC000AE0290003E039000CE0390000020E10081
:103CD00001A8E10002B0E10003B8E10003003A00EE
:103CE00070C8BF00E74F50000400320060438000FE
:103CF0000000E80060438800060037005000200004
:103D0000A042880003003700604380000000E80004
:103D10006043880060438000E30F50004700360096
:103D20005428EF0048003700720207000004E0004A
:103D30001F003A0050C5B3009F0207000000EB00CF
:103D4000000F78000500370080BB20001E004000F7
:103D500010407800980207001E0FE8001E0078004F
:103D6000E70F5000F8FF360050C5B300920207007D
:103D70006EC8BF00900207006FC8BF008E02070028
:103D800070C8BF008C02070070002000A0428800AD
:103D90005E28EF00A08320005001BE004000BE005E
:103DA00064852000009ABE000292BE002600370003
:103DB0005428EF0024003700F0428000EA0F500042
:103DC000200036008E020700A1CAB300814F5000C8
:103DD00004003A004702070080002000A04288004B
:103DE00019003700604380000000E800604388004D
:103DF00040002000A04288001300370000000000AF
:103E000011003700000000000F0037000000000024
:103E10000D003700000000000B003700000000001C
:103E20000900370000000000070037000000000014
:103E3000050037000000000003003700000000000C
:103E400001003700000000004F05BE004F04BE0017
:103E50000080FA00000006000400FA00D04680004E
:103E6000EF0F500008003A00A1418000B00220008E
:103E7000808F500004003A003308A8001000200092
:103E8000E04788003428EF0000CFB3004A02070063
:103E90000040EB00480207000040EB00460207002C
:103EA0000000EB00000F7800050037005402070007
:103EB00001B020009E804000804878001E0FE8007E
:103EC000F00720009E007800808F5000F7FF36003A
:103ED00010B2200010407800F04F500012013A005C
:103EE0000000EB00000F78000900370090438000CD
:103EF0004300DD001E00400081BA2000E140780050
:103F000080BB20001E004000014878001E0FE80022
:103F10001E007800E70F5000F4FF360080B7200045
:103F2000104078000080FB008000EB006011B800BA
:103F3000A4832000009ABE000292BE00A08320004D
:103F40005001BE004000BE00C819DD004812DE006E
:103F5000830172004811DD00480ADE000201720090
:103F6000C808DD004802DE00810072004800DD0064
:103F7000A4832000009ABE000292BE0090B72000E9
:103F8000104078000082FB008002EB006033B80034
:103F9000A08320005001BE004000BE00000042008F
:103FA00081804A0002014B0083814B00A4832000E2
:103FB000009ABE000292BE00A08320005001BE0005
:103FC0004000BE00C819DD004812DE008301720007
:103FD0004811DD00480ADE0002017200C808DD0059
:103FE0004802DE00810072004800DD00A48320004A
:103FF000009ABE000292BE00A0B7200010407800D8
:104000000082FB008002EB006033B800A083200038
:104010005001BE004000BE000000420081804A0006
:1040200002014B0083814B00A4832000009ABE0054
:104030000292BE00A08320005001BE004000BE00DE
:10404000C819DD004812DE00830172004811DD004E
:10405000480ADE0002017200C808DD004802DE00E6
:10406000810072004800DD00A4832000009ABE0099
:104070000292BE00B0B72000104078000082FB0022
:104080008002EB006033B800A08320005001BE0026
:104090004000BE000000420081804A0002014B0047
:1040A00083814B00A4832000009ABE000292BE00D0
:1040B000A08320005001BE004000BE00C819DD00F2
:1040C0004812DE00830172004811DD00480ADE005C
:1040D00002017200C808DD004802DE0081007200A3
:1040E0004800DD00A4832000009ABE000292BE00BA
:1040F000C0B72000104078000082FB008002EB0077
:104100006033B800A08320005001BE004000BE0014
:104110000000420081804A0002014B0083814B0075
:10412000A4832000009ABE000292BE00A08320005B
:104130005001BE004000BE00C819DD004812DE007C
:10414000830172004811DD00480ADE00020172009E
:10415000C808DD004802DE00810072004800DD0072
:10416000A4832000009ABE000292BE00D0B72000B7
:10417000104078000082FB008002EB006033B80042
:10418000A08320005001BE004000BE00000042009D
:1041900081804A0002014B0083814B00A4832000F0
:1041A000009ABE000292BE00A08320005001BE0013
:1041B0004000BE00C819DD004812DE008301720015
:1041C0004811DD00480ADE0002017200C808DD0067
:1041D0004802DE00810072004800DD00A483200058
:1041E000009ABE000292BE00E0B7200010407800A6
:1041F0000082FB008002EB006033B800A083200047
:104200005001BE004000BE000000420081804A0014
:1042100002014B0083814B00A4832000009ABE0062
:104220000292BE00A08320005001BE004000BE00EC
:10423000C819DD004812DE00830172004811DD005C
:10424000480ADE0002017200C808DD004802DE00F4
:10425000810072004800DD00A4832000009ABE00A7
:104260000292BE00F0B72000104078000082FB00F0
:104270008002EB006033B800A08320005001BE0034
:104280004000BE000000420081804A0002014B0055
:1042900083814B00A4832000009ABE000292BE00DE
:1042A000A08320005001BE004000BE0064852000B5
:1042B000009ABE000292BE000000EB00000F7800E2
:1042C0000D00370000B020001E0040009040780034
:1042D00000B820001E0040000148780000B820000F
:1042E0001E00400010407800AE40900000C040002A
:1042F000204798001E0FE8001E007800FF0F5000B6
:10430000F0FF360000B22000904078002E40900070
:1043100080CF500002003A00D968A8004100370061
:10432000D968A9003F00370000B020009040780015
:1043300000C2B30080CF50000A00320000B020005D
:104340009040780000C4B30080CF500005003200D8
:1043500000B020009040780000C3B30080CF500030
:104360002B003A0000B02000104078000080FB00D5
:10437000304288000000EB00000F78000900370091
:10438000904380004300DD001E00400081BA200001
:10439000E140780000BC20001E0040000148780089
:1043A0001E0FE8001E007800E70F5000F4FF3600F3
:1043B000A0B02000104078000080FB008000EB00DF
:1043C0001042880021428800104280002142800073
:1043D000C000DD000000200010428800214288005B
:1043E000B0B02000104078000081FB008001EB009D
:1043F000104280002142800002004000838048007B
:104400001042880021428800D948A80005003700E2
:1044100000B02000104078000004E00001003A00E5
:10442000D948A9000080FA00000006000E00FA003A
:1044300010002000000F78000000EB00100798002B
:104440000000EB002007980010C0B300004F980058
:104450000000EB00300798006668EF002043800002
:104460000000E00079003A00A20007000004E0002C
:10447000050032006028EF006428EF006228EF009A
:104480000000EB007E00370000CFB300CA00070039
:10449000BB0007000080FB0050079800B800070031
:1044A0000080FB00600798005E009000E10F500064
:1044B00003003A006E009000E10F500053003200FC
:1044C000DE0090006E009000808F500003003200EC
:1044D0005E009000104F98002000370000438000DD
:1044E0009E007800808F50000B00310001BA200040
:1044F0002E00900000804000904078000E48900010
:1045000000C060000080FB000000EA004F00DE00F9
:10451000104F980007003700004380001E0068001D
:1045200000F0A7000000EA000000E9004F00DE00F4
:10453000104F98001E4890000004E00007003A0069
:104540009E007800110798001E009000E80F5000B0
:1045500002003E009E009000114388001E4890001B
:10456000E14F50000B003A0001BA20002E009000ED
:1045700000804000904078000E48900080C070009D
:1045800002BA20002E00900000004100014878008F
:104590000D00370001BA20002E009000008040007E
:1045A00010407800804078000E48900000C0EA007B
:1045B00000C060008040780002BA20002E00900009
:1045C00000004100014878001E4890005800070094
:1045D0001E0FE8000E48900000404000004F980079
:1045E0000E4890000004E00005003A002E00900004
:1045F0000000E8002007980010C0B300004F9800AA
:104600002E009000E70F5000A1FF360000042000AC
:104610009E007800808F50000C00360066C8BF00F6
:104620000004E00009003A009E0090000143880069
:10463000004380000000E00002003A00100020006B
:104640002043880010002000300798003E009000B2
:104650000000E0000400320000BA200010407800A2
:104660000004E00005003A006028EF006428EF0035
:104670006228EF000000EB00300798003E00900039
:104680000080FA00000006000000FA00F4E2A90031
:10469000F0E2A9000080FA00000006000000FA0025
:1046A000F4E2A900F0E2A8000080FA000000060091
:1046B0000200FA000040EB00004F7800F0E2A80092
:1046C0009117800000082000008060000000E000DA
:1046D0000300320010C0B300004F78000200370022
:1046E0000040EB00004F78001E4078000080FA0088
:1046F000000006000200FA00E3FF0700001E200091
:1047000057000700E5FF0700600420005400070081
:10471000E7FF0700004F7800A019200050000700B5
:10472000DEFF07001E4078000080FA00000006004F
:104730000200FA00004F78001E4078000004E000FC
:1047400007003200D0FF070060002000440007008F
:10475000D2FF0700000420004100070006003700D8
:10476000C9FF0700C00320003D000700CBFF070082
:10477000A00020003A0007000080FA0000000600B8
:104780000200FA00C0FF07006000200034000700AC
:10479000C2FF07009000200031000700C4FF07009F
:1047A000004F7800700320002D0007001E407800A5
:1047B0000080FA00000006000400FA00204798007C
:1047C0000040EB00004F7800080037002E409000BA
:1047D00061406000D6FF07002E4090000080FB0083
:1047E0000000D100204798001E4FE8001E407800CE
:1047F000E74F5000F5FF36000080FA000000060089
:104800000200FA000040EB00104798000040EB0067
:10481000004F78000C0037001E4090000080FB0025
:104820000000D10010479800D5FF07000004E00009
:10483000040032009E40900000C8B30000C0700029
:10484000104798001E4FE8001E407800E74F5000C8
:10485000F1FF36001E4090000080FA0000000600C4
:104860000200FA00000F78008780A9001821EF00ED
:104870009E007800800220000088B90000007800C7
:10488000E008880021E1A800000000003104800059
:1048900000002100008060000000E000FBFF32000B
:1048A00021E1A9000080FA00000006000E00FA00D5
:1048B0000040EB00604798000000EB00000F78001C
:1048C0006000B80010079800210798001E009000B3
:1048D000AE0090008100D1000080D3001007980046
:1048E00021079800000020000100200050079800D8
:1048F00061079800250037000060FE004E489000D8
:1049000032E0B7005E0090001000BA004007980047
:104910004E009000604798006E4090000080FB00C1
:104920001E0F40004E0090004880DE006047980057
:104930006E4090000080FB001E0F40005E00900063
:104940001080BA00400798004E0090006047980021
:104950006E4090000080FB001E0F40005E00900043
:10496000EE00900062004000E08048005007980090
:10497000610798001E009000AE00900062004000A9
:10498000E080480010079800210798001E01900061
:10499000AE019000E01F200001002000800F5100B8
:1049A000818F5900D4FF3600130037000060FE00ED
:1049B000F10F20001E8F4000F10F20001E8F4000DD
:1049C000F10F20001E8F40005E009000EE0090006E
:1049D00062004000E080480050079800610798009E
:1049E0001E009000AE00900062004000E080480091
:1049F00010079800210798001E019000AE0190005A
:104A0000E0FF200001002000800F5100818F59003D
:104A1000E6FF3600250037000060FE004E4890009B
:104A200032E0B7005E0090001000BA004007980026
:104A30004E009000604798006E4090000080FB00A0
:104A40001E0F40004E0090004880DE006047980036
:104A50006E4090000080FB001E0F40005E00900042
:104A60001080BA00400798004E0090006047980000
:104A70006E4090000080FB001E0F40005E00900022
:104A8000EE00900062004000E0804800500798006F
:104A9000610798001E009000AE0090006200400088
:104AA000E080480010079800210798001E01900040
:104AB000AE019000D07F2A0001002000800F51003D
:104AC000818F5900D4FF36004E48900032E0B70085
:104AD0005E0090001000BA0080428800F10F2000B4
:104AE0001E8F4000F10F20001E8F4000F10F2000AC
:104AF0001E8F40005E009000EE00900062004000BB
:104B0000E080480050079800610798001E00900060
:104B1000AE00900062004000E0804800100798005E
:104B200021079800130037000060FE00F10F2000FD
:104B30001E8F4000F10F20001E8F4000F10F20005B
:104B40001E8F40005E009000EE009000620040006A
:104B5000E080480050079800610798001E00900010
:104B6000AE00900062004000E0804800100798000E
:104B7000210798001E019000AE019000E0BF2A00BE
:104B800001002000800F5100818F5900E6FF3600A0
:104B900000002000810F2000500798006107980056
:104BA0004E48900032E0B7005E0090001000BA005E
:104BB000400798004E0090006F006000400798008A
:104BC0004E009000604798006E4090000080FB000F
:104BD0001E0F400040002000810F20005007980069
:104BE000610798004E48900032E0B7005E009000E8
:104BF0001000BA00400798004E0090006700600067
:104C0000400798004E009000604798006E4090006A
:104C10000080FB001E0F400060002000810F20007C
:104C200050079800610798004E48900032E0B700A6
:104C30005E0090001000BA0040079800CE0090007F
:104C40007008200000806000400798004E0090002F
:104C5000604798006E4090000080FB001E0F4000EF
:104C600080002000810F2000500798006107980005
:104C70004E48900032E0B7005E0090001000BA008D
:104C800040079800CE009000700C2000008060006B
:104C9000400798004E009000604798006E409000DA
:104CA0000080FB001E0F4000A0002000810F2000AC
:104CB00050079800610798004E48900032E0B70016
:104CC0005E0090001000BA0040079800CE009000EF
:104CD000F00D200000806000400798004E0090001A
:104CE000604798006E4090000080FB001E0F40005F
:104CF000C0002000810F2000500798006107980035
:104D00004E48900032E0B7005E0090001000BA00FC
:104D100040079800CE0090007006200000806000E0
:104D2000400798004E009000604798006E40900049
:104D30000080FB001E0F4000E0002000810F2000DB
:104D400050079800610798004E48900032E0B70085
:104D50005E0090001000BA0040079800CE0090005E
:104D6000300E200000806000400798004E00900048
:104D7000604798006E4090000080FB001E0F4000CE
:104D800000012000810F2000500798006107980063
:104D90004E48900032E0B7005E0090001000BA006C
:104DA00040079800CE009000F003200000806000D3
:104DB000400798004E009000604798006E409000B9
:104DC0000080FB001E0F40009E00780071428800AA
:104DD0006E4090000080FA00000006000000FA001B
:104DE000100280000050A1000060A1000070A1002E
:104DF000100288000421EF002005800000C0A100FF
:104E000000D0A00000E0A000200588008460A90078
:104E10009460A8000021EF00F0F92000100888003D
:104E200005E1A8001021EF00800880000040A000EC
:104E30000050A000800888003005800000C0A0005D
:104E400000D0A00000E0A0003005880084E0A900A8
:104E500094E0A8000621EF001221EF0090088000E6
:104E60000040A0000050A00090088800400580008D
:104E70000000A0000010A0000020A0004005880055
:104E80008500A9009500A8000A21EF001E21EF006F
:104E9000F00880000040A1000050A000F008880049
:104EA0008005800000C0A10000D0A00000E0A000AC
:104EB000800588008760A9009760A800803E2000D8
:104EC000D00888001421EF002021EF009005800019
:104ED0000000A0000010A0000020A10090058800A4
:104EE0008780A9009780A9001821EF008002200088
:104EF000E0088800C222EF00C422EF00C002A80030
:104F0000C022A800C042A900C442A900C062A900F2
:104F1000C462A900C082A900C482A900C0A2A900DD
:104F2000C4A2A900C0E2A900C4E2A800C122A9004D
:104F3000C522A900C142A900C542A900C1E2A90039
:104F4000C5E2A900CA22EF00CC22EF00C8C2A90026
:104F5000C8E2A900C982A900CD82A900C9A2A900FE
:104F6000CDA2A900C9C2A900CDC2A900C9E2A90069
:104F7000CDE2A900D222EF00D422EF00D062A90036
:104F8000D462A900D1A2A900DD62A900D1C2A80003
:104F9000DA22EF00DC22EF00D802A900DC02A80030
:104FA000D822A800D842A800D882A900DC82A80094
:104FB000D902A900DD02A800D922A900DD22A8009B
:104FC000D942A900DD42A900D962A900DD62A8008A
:104FD000D9A2A900DDA2A800D9C2A900DDC2A900FA
:104FE000D9E2A900DDE2A900E222EF00E422EF000D
:104FF000E002A900E022A900E422A900E062A900E1
:10500000E462A800E082A900E0A2A800E0E2A80013
:10501000EA22EF00EC22EF00E822A900EC22A9002E
:10502000E842A800E862A900F222EF00F422EF00B3
:10503000F002A900F402A900F022A900F422A900BC
:10504000F042A900F442A800F062A900F462A800AE
:10505000F0C2A800F102A900F502A800F122A900FF
:10506000F522A800F1E2A900F5E2A90021E2A900D9
:1050700021A2A9002182A9002162A80000118000BC
:105080000080A1000090A1000011880020E2A9008A
:1050900020C2A90020A2A9002082A9002062A900A4
:1050A000001180000010A1000020A1000011880064
:1050B0002002A900500120004011880023E2A9002D
:1050C00023C2A90023A2A9002362A9002342A900A8
:1050D0002322A9002302A900101180000060A10072
:1050E0000070A1001011880022A2A9002282A9004C
:1050F0002262A9002242A9002222A9002202A900BC
:105100004005800000C0A00000D0A10000E0A00089
:1051100040058800500580000000A0000010A1009C
:105120000020A000500588008580A9009580A80077
:105130008560A9009560A80021E2A8002342A8008C
:1051400000A0200051C5B3000148780010A0200045
:1051500001C1B3000148780020A0200001C9B300BC
:105160000148780030A020008040EB000148780022
:1051700040A0200080C0EB000148780010A0200073
:105180009040780020A020001040780080C04000AF
:1051900030A020001040780080C0400040A02000D7
:1051A0001040780080C0400050A0200001487800E6
:1051B00010002200001C880070002000501C880095
:1051C000A0002000101C880080242000401C8800C3
:1051D000003E2000201C8800300580000000A10057
:1051E0000010A1000020A000300588008480A900E4
:1051F0009480A80081E3A80010002000601C8800B3
:1052000070002000B01C8800A0002000701C8800E6
:1052100080242000A01C8800003F2000801C880003
:10522000500580000080A1000090A10000A0A00017
:105230005005880085C0A90095C0A8008DE3A8008E
:105240009540A9004382A9004362A9004342A800F7
:105250004322A9004302A90042E2A90042C2A800D9
:1052600042A2A800101280000020A0000030A00080
:105270000040A10010128800101280000000A10060
:105280000010A0001012880041E2A8004005800034
:105290000080A1000090A00000A0A00040058800B0
:1052A0008540A9009540A900102080000000A100C1
:1052B0000010A0000020A000102088002124A800D9
:1052C000002180000060A1000070A0000021880083
:1052D0002104A9004006200040218800400620004B
:1052E000802188001021800000A0A00000B0A00054
:1052F0001021880023E4A90023C4A9002003200072
:105300003021880020032000702188004124A8005B
:10531000002280000060A1000070A0000022880030
:1053200080912700402288001022800000A0A00069
:1053300000B0A0001022880043E4A90043A4A80004
:10534000000E26003022880043E4A80001E4A800F3
:105350000103A90000E3A80000C3A90000A3A9005D
:105360000083A8000183A900001880000000A000AD
:105370000010A1000020A000001888005118800033
:1053800000FE2F00008060000000A0005018880080
:1053900051188000F00F2E00808060000010200067
:1053A00001007000501888006118800000FE2F0076
:1053B000008060000000A000601888000203A900BF
:1053C0000223A9000243A9000263A9000283A900E5
:1053D00002A3A900D00680000080A1000090A100D7
:1053E00000A0A000D006880091C0A900A1C0A8001C
:1053F000D006800000C0A10000D0A10000E0A00005
:10540000D006880091E0A900A1E0A800E006800095
:105410000000A1000010A1000020A000E00688000C
:105420009200A900A200A80001E3A8000080FA00F1
:10543000000006000400FA001007980041128000E6
:10544000010F78009E0090004112880000000000CB
:1054500000128000610060000000E000FCFF3200EC
:1054600041128000010F78001E0078000080FA00D1
:10547000000006000000FA0010000700390A0700CB
:10548000D4090700930A070036F80700450807000B
:10549000740B0700E400070039010700BC05070092
:1054A000890C07001B0D07006A0D07004B0D070054
:1054B000BA0107000080FA00000006000000FA00B0
:1054C0009141800000102000008060000000E0009A
:1054D000C5003200E0478000F00F50001600320097
:1054E000F00F500005003E00E10F50005100320067
:1054F000EF0F500057003200B800370001022000C3
:10550000810F50000600320051052000810F50002D
:105510004C003200F50F500014003200AF0037008D
:10552000D0468000E10F5000A5003A00D046800030
:10553000E0478800A90037003248A800000020009A
:1055400001172400B0408800C1408800C5E2A800CF
:105550003208A8003288A800401F20004047880079
:1055600033C8A9003368A9009C003700C0468000FA
:10557000700060000000E000290032003288A800BE
:10558000803920004047880010468000F90F500005
:1055900005003A0000002000010E2400B040880001
:1055A000C14088001A003700114680002003200007
:1055B000808F500005003A0000002000010A2400FE
:1055C000B0408800C14088001100370011468000BB
:1055D000B0042000808F500005003A000000200039
:1055E00001042400B0408800C14088000800370052
:1055F0001146800040062000808F500004003A00D1
:105600000000200001F82300B0408800C14088005D
:105610003368A80033C8A8005228EF006F00370095
:10562000D0468000E0478800D888A900D948A90062
:105630006A0037006E0007003248A9003268A900EE
:10564000660037006A0007003248A9003268A900E6
:105650006200370066000700D1468000E047800006
:10566000808F500058003200A04180006101B800D6
:10567000B0FE2F00F1FF2F000200400083804800A1
:105680008201200003002000820F5000838F580009
:105690004F003E0000600100460037004600370022
:1056A0004D003700310037004B003700190037003C
:1056B0001E00370011003700470037001E0037007A
:1056C0004500370010003700430037004200370024
:1056D0001300370040003700180037002C00370057
:1056E000190037003C0037001A0037001C00370053
:1056F0002600370038003700260037003248A9005E
:105700003268A9002D0037003248A9003268A9008C
:105710002A0037003248A9003268A9002700370064
:105720003248A9003268A900240037003248A90095
:105730003268A90021003700200037003248A90054
:105740003268A9001D0037003248A9003268A9005C
:105750001A0037003248A9003268A9001700370044
:105760003248A9003268A900140037000000200068
:1057700001172400B0408800C14088003288A8008A
:10578000401F2000404788000C0037000B00370006
:105790000A0037000000200001172400B0408800F4
:1057A000C14088003288A800401F20004047880080
:1057B000020037000100370000000000070037003A
:1057C0000000000005003700000000000300370063
:1057D000000000000100370000000000E0478000EA
:1057E000D04688003308A9000080FA0000000600B7
:1057F0000000FA00F5E2A900DC82A80023E4A90079
:1058000011E1A9001FE1A900F522A8003388A90031
:105810003368A90033C8A900C5E2A9003208A9006D
:105820000080FA00000006000000FA00881F7800DF
:1058300060448000E20F500018003200E20F500078
:1058400005003E000000E00008003200E10F5000BB
:105850000C00320047003700E30F500020003200F8
:10586000E40F50003400320042003700D046800080
:10587000F00F500036003A0010002000604488000D
:105880003C003700D0468000F50F500032003A004F
:1058900020002000604488003600370090418000DE
:1058A000680060000000E0000800320091418000C4
:1058B00000002100008060000000E00003003200D2
:1058C00030002000604488002A003700D046800065
:1058D000F50F5000220032008C28EF002500370021
:1058E000204680003146800018C0B300020020002E
:1058F0000315240018F507000000E0000100350042
:105900000044EB000804E000060032000002200022
:10591000E04788003308A800400020006044880069
:1059200014003700D0468000F50F50000E00320002
:105930008C28EF000F003700D146800000022000C5
:10594000808F50000A0032008C28EF0009003700D9
:1059500000000000070037000000000005003700CD
:1059600000000000030037000000000001003700C5
:10597000000000004F0478000080FA0000000600DC
:105980000000FA00D146800000022000808F500005
:1059900072003A0050448000E40F50006900320069
:1059A000E40F500005003E00E10F500027003200D8
:1059B000E30F50003C00320076003700E70F500044
:1059C00003003200E80F500056003200710037002B
:1059D000D04580000000E0001800320032E8A80046
:1059E000D988A900C442A80023E4A800CD82A80059
:1059F000E0468000600888000621EF00B04180008A
:105A00000000E00003003200B04180007008880010
:105A10000A21EF0084E0A90011E1A8008500A90097
:105A200013E1A8001421EF008760A9001FE1A8007E
:105A300010002000504488005600370023E4A900DD
:105A4000E422A900C442A90052003700C1468000E8
:105A500000002100008060000000E000040032002F
:105A6000C442A9003000200050448800490037009B
:105A7000C146800000102000008060000000E000AF
:105A80003B00320000022000A04188003308A8003B
:105A9000F0002000E04788006000200050448800AB
:105AA000C442A9003B003700C442A90071448000F1
:105AB000F0468000808F50002F003900C0468000E3
:105AC000640060000000E00013003200C146800066
:105AD00000002200008060000000E0000B003200A7
:105AE000904280008000E90030448000808F5000A8
:105AF0002300310080002000504488008628EF00F9
:105B00007A28EF00C442A80022003700700020006D
:105B1000504488001F003700400020005044880097
:105B20001C003700D1438000004B2000808F5000C4
:105B300015003600C442A9004000200050448800EF
:105B400014003700D04580000000E00010003A004B
:105B500070002000504488000E003700C442A900A5
:105B600032E8A90070002000504488000900370086
:105B700000000000070037000000000005003700AB
:105B800000000000030037000000000001003700A3
:105B9000000000000080FA00000006000400FA0087
:105BA0000000EB0010079800B04680006400600021
:105BB0000000E000B300320080448000E10F50009C
:105BC0000D003200E10F500003003900E20F5000D9
:105BD000400032009E00370081E3A8008DE3A8005A
:105BE000F442A800F502A90083E3A800D648A90062
:105BF0009540A800A00037009141800000082000D7
:105C0000008060000000E0001D0032000000EB009A
:105C1000000F7800140037001E007800800040005C
:105C200000BF220000804000100078008000D100FA
:105C30001E0078000001400000BF2200000041006B
:105C4000010878001E0078008000400000BF22009C
:105C500000804000100078009E009000008040000E
:105C6000100798001E0FE8001E007800E70F500094
:105C7000E9FF36001E0090004300DE00404288002D
:105C80000000EB00000F7800070037001E007800CE
:105C90008000400000BE22000080400001002E0075
:105CA000010878001E0FE8001E007800E70F500082
:105CB000F6FF36009540A80081E3A8008DE3A80018
:105CC000F442A800F502A90083E3A800D648A90081
:105CD00069003700914180000008200000806000CA
:105CE0000000E0004B003A000000EB00000F7800DD
:105CF000280037001E0078008000400000BF22000E
:105D000000804000100078008000D1001E00780064
:105D10000001400000BF220000004100010878009F
:105D20001E0078008000400000BF2200008040007C
:105D300090007800803E2000808F500007003E00D9
:105D40001E0078008000400000BF2200008040005C
:105D5000100078000000E00005003A00E0448000F8
:105D60009E00900000804000100798000800370057
:105D70001E0078008000400000BF2200008040002C
:105D8000100078009E0090000080400010079800EE
:105D90001E0FE8001E007800E70F5000D5FF360008
:105DA0001E0090004300DE00100798009E00900047
:105DB000E14488009E009000000320000088B900A4
:105DC000000078008000EB005042880061428800AB
:105DD0005042800061428000B25E20000289B9001A
:105DE000020178006002B9008401780003014100DB
:105DF000B35E20000300B80001014100820078007A
:105E0000029F2400230020009CF4070050428800D9
:105E1000614288000000EB00000F780007003700A7
:105E20001E0078008000400000BE2200008040007C
:105E300001002C00010878001E0FE8001E00780009
:105E4000E70F5000F6FF36007C28EF000A0037000D
:105E5000E1438000F0478000808F5000030036004F
:105E60000080EB00804488000300370070002000B1
:105E70008044880000000000804480000000E800AA
:105E800080448800C1468000000820000080600037
:105E90000000E00066003200D8E8A9008428EF0086
:105EA0009228EF000000EB00000F78000900370097
:105EB0001E0078008000400080BC20000080400070
:105EC000900078009044800000804000904488005A
:105ED0001E0FE8001E007800E40F5000F4FF3600AB
:105EE000914480005000200000017800110009005A
:105EF0008280D800904488009044800001202000D7
:105F000000805000904488009144800020142000BC
:105F10000088B90080007800402920000001780046
:105F2000110009008280D800904488009428EF0076
:105F30000000EB00000F7800090037001E00780019
:105F40008000400020BD20000080400090007800CC
:105F5000A044800000804000A04488001E0FE8009C
:105F60001E007800E40F5000F4FF3600A1448000CA
:105F70005000200000017800110009008280D80044
:105F8000A0448800A0448000E01FB100A044880025
:105F9000A1448000201420000088B900800078000F
:105FA0004029200000017800110009008280D800FB
:105FB000A044880091448000A044800000804000FC
:105FC000B0448800B1448000C0448000808F5000FD
:105FD00004003E00B1448000D0448000808F500017
:105FE0000E003100B1448000F0092000808F500085
:105FF0000F003E00D0458000E10F500009003A003C
:106000009141800000082000008060000000E00056
:1060100006003200D908A80005003700D908A900F9
:1060200003003700000000000100370000000000FE
:106030000080FA00000006000000FA001011800045
:10604000620060000000E000020032002222A9008D
:10605000E068EF00B0468000620060000000E000F1
:106060001A00320020478000E60F5000170036006B
:10607000D628A900E168EF0000000000E0C8BF00DA
:106080000004E000FDFF3A0000000000211680003F
:1060900000022000008060000000E000FBFF3A00EA
:1060A000C4A2A80000000000111180000010200010
:1060B000008060000000E000FBFF320000A0200034
:1060C000104078000080FB0020118800B04680005E
:1060D000610060000000E00015003200E068EF00A1
:1060E000D608A9006090200010407800664040006B
:1060F0004200070061902000914078008180FB0001
:10610000E780400002902000E2C07800814F5000FC
:1061100005003A0070902000104078000080FB00DD
:106120004F00070002003700400120004C0007002C
:106130000080FA00000006000200FA00881F7800C4
:10614000004F780011479800E428EF001E80FB0004
:10615000680040001047880060A020001E487800BA
:1061600070A020009E409000014878001E80FB0037
:10617000670440009E40780066C0400006000700AB
:1061800001A0200080707C00D628A8004F04780071
:106190000080FA00000006000600FA004047980060
:1061A0000040EB00004F78006000200010079800CE
:1061B0000800370001A020001E0090000080400071
:1061C000104078001E4F40001E0090000000E800C4
:1061D000100798004E4090000080FB000000E8008F
:1061E000800078001E009000808F5000F1FF3E007C
:1061F0001E4078000080FA00000006000600FA0049
:10620000404798000040EB00004F780060002000FD
:106210001007980008003700019020001E00900031
:1062200000804000104078001E4F40001E0090008B
:106230000000E800100798004E4090000080FB002E
:106240000000E800800078001E009000808F500061
:10625000F1FF3E001E4078000080FA0000000600BA
:106260000400FA00889FBE00100798001E009000EE
:1062700021032000810F500016013200210320006D
:10628000810F500012003E00E40F5000BF003200AA
:10629000E40F500005003E00E10F500023003200E3
:1062A000E20F5000270232003302370001022000C3
:1062B000810F5000FC00320051022000810F50007D
:1062C000CF013200E50F5000A30032002A02370050
:1062D00081042000810F5000E8003200810420007A
:1062E000810F500007003E0041042000810F500044
:1062F0005F00320071042000810F5000C0003200A6
:106300001D02370051052000810F5000720032003D
:10631000C10C2000810F5000CB013200310520005C
:10632000810F50009D01320013023700304280007F
:106330008040780080A0200001487800A0832000E1
:106340005001BE004000BE004818DE0080407800CA
:1063500090A0200001487800A08320005001BE00DA
:106360004000BE000300780080407800A0A020001C
:1063700001487800A08320005001BE004000BE000C
:106380004810DE00481ADD000000720080407800EE
:10639000B0A0200001487800A08320005001BE007A
:1063A0004000BE000200780080407800C0A02000BD
:1063B00001487800A08320005001BE004000BE00CC
:1063C0004808DE004812DD000000720080407800BE
:1063D000D0A0200001487800A08320005001BE001A
:1063E0004000BE000100780080407800E0A020005E
:1063F00001487800A08320005001BE004000BE008C
:106400004800DE00480ADD0000007200804078008D
:10641000F0A0200001487800A08320005001BE00B9
:106420004000BE008040780000A1200001487800B4
:10643000D04580008040780010A1200001487800FD
:10644000D04680008040780020A1200001487800DC
:10645000A04180008040780030A1200001487800F1
:1064600031C3B300D0C0B30033FF0700C50137000C
:1064700090902000104078000080FB00404788008A
:10648000404780004800DD0040478800A090200081
:10649000104078008080FB00404780000080400072
:1064A000404788003288A800809020001040780083
:1064B0000004E000020032003248A8000200370069
:1064C0003248A900E828EF0011C4B30010C0B3009F
:1064D00019FF0700AB01370011C4B30010C0B300AF
:1064E00015FF07000000000020478000E30F500068
:1064F000FDFF3600D628A90000000000E0C8BF005C
:106500000004E000FDFF3A000000000021168000BA
:1065100000022000008060000000E000FBFF3A0065
:10652000C4A2A8002342A80000A0200010407800C8
:106530000080FB0020118800000000002116800070
:1065400000022000008060000000E000FBFF3A0035
:106550000000FE008B01370080A0200011C0B300B6
:106560000148780090A0200011C0B30001487800D5
:10657000A0A0200071C4B3000148780001C5B30099
:1065800040C0B300ECFE07007E013700D04680001B
:10659000EF0F500005003A008090200090407800F6
:1065A00050C5B30080CF500009003A008090200011
:1065B000104078000080FB00E04788003308A80006
:1065C00011C4B30010C0B300DBFE07006D0137003B
:1065D000D0468000EF0F500005003200F000200090
:1065E000E047880050012000A04188003308A8003F
:1065F00041C1B30010C0B300CFFE070061013700F6
:1066000090902000104078000080FB00104088002F
:10661000104080004800DD0010408800A09020005D
:10662000104078008080FB00104080000080400017
:10663000104088001140800000CF2300808F500060
:106640000200360000CF230010408800D828A800A0
:1066500080902000104078000004E000020032002A
:106660003208A800010037003208A90011C4B300A5
:1066700010C0B300B0FE0700420137008090200038
:10668000104078000004E0000200320033E8A80067
:106690000100370033E8A90011C4B30010C0B300F3
:1066A000A5FE0700370137008090200010407800D9
:1066B0000004E000020032003368A8000100370047
:1066C0003368A90011C4B30010C0B3009AFE0700DC
:1066D0002C013700009120009040780050C9B30091
:1066E00080CF5000A9003E0080902000104078002C
:1066F0000080FB00E0468800E04680004800DD00A6
:10670000E046880090902000104078008080FB00D8
:10671000E046800000804000E0468800A090200015
:10672000104078000080FB00F0468800F0468000B2
:106730004800DD00F0468800B0902000104078004E
:106740008080FB00F046800000804000F04688001A
:10675000F04680000000E00006003200F1468000B4
:10676000E046800000805000F0468800D848A8002D
:1067700003003700D848A900803E2000F04688007A
:10678000E04680008000EB00027122000289B9001F
:10679000020178006002B900840178000301410021
:1067A000037122000300B80001014100820078005B
:1067B0004A09DD004600DE0000007100C608DE0068
:1067C00000007800E0468800E04680000009B10043
:1067D000E0468800C0902000104078000080FB0058
:1067E000B0418800B04180004800DD00B041880021
:1067F000D0902000104078008080FB00B0418000E5
:1068000000804000B0418800E090200010407800F7
:106810000080FB00C0418800C04180004800DD00CE
:10682000C0418800F0902000104078008080FB007C
:10683000C041800000804000C0418800C04180000D
:106840008000EB00027122000289B9000201780089
:106850006002B90084017800030141000371220045
:106860000300B80001014100820078004A0ADD00FF
:106870004600DE0000007200C608DE00000078005E
:10688000C0418800B04180008000EB00027122000E
:106890000289B900020178006002B9008401780021
:1068A00003014100037122000300B800010141000F
:1068B000820078004A09DD004600DE000000710019
:1068C000C608DE0000007800B0418800B0418000BA
:1068D0000009B100B041880000912000104078000C
:1068E0000080FB009046880033A8A800109120008B
:1068F000104078000080FB001046880011C4B300EF
:1069000010C0B3000CFE0700904680008000EB0032
:1069100051F107000004BE00904680008000EB00AB
:106920004DF10700A299290093E923009FF1070088
:106930000001BE000800BE0068F007002BF1070050
:1069400000007800C0448800904680008000EB0082
:1069500041F107000004BE00904680008000EB007B
:106960003DF10700A299290093E923008FF1070068
:106970000001BE000800BE0057F007001BF1070031
:1069800000007800D04488007E00370041C1B30089
:1069900010C0B300E8FD07007A00370080902000A7
:1069A00010407800E34F50000F003A00D9A8A8002B
:1069B00090902000104078000080FB0090428800FA
:1069C000904280004800DD0090428800A0902000A6
:1069D000104078008080FB009042800000804000E2
:1069E0009042880001003700D9A8A9005228EF0082
:1069F00011C4B30010C0B300CFFD07006100370021
:106A00000040EB00004F7800080037001E80FB00BC
:106A1000680040009E80FB0002B8200062C1780040
:106A200001A02000827078001E4FE8001E40780010
:106A3000FF4F5000F5FF360021C5B30010C2B30070
:106A4000BDFD07004F003700D04580008040780032
:106A500080A0200001487800101680000000D100BE
:106A6000614060008040780090A0200001487800DC
:106A7000901780004600DE00614060008040780092
:106A8000A0A0200001487800101780004700DE0019
:106A90006140600080407800B0A02000014878008C
:106AA000101680000040780061406000804078004F
:106AB000C0A0200001487800C0478000D147800076
:106AC000A9F007000040780080407800D0A02000A6
:106AD000014878002046800031468000A2F007007F
:106AE0000040780080407800E0A020000148780055
:106AF000C146800000022000008060000000E0002D
:106B000009003200C14680000004200000806000BF
:106B10000000E00004003200F0A0200011C0B3002B
:106B20000148780003003700F0A020008040EB000F
:106B300001487800D1CCB30090C0B3007EFD0700BF
:106B400010003700704280004880DE0080407800EE
:106B500080A02000014878007042800080407800CA
:106B600090A020000148780021C1B30030C0B300DC
:106B700071FD07000300370041C1B30010C0B3002E
:106B80006DFD07004F04BE000080FA000000060003
:106B90000C00FA00889FBE0000408000E50F500006
:106BA00099003A000028EF006000B80040468800D5
:106BB00051468800315F800011079800315F8000E6
:106BC000210798000000EB00300798000000EB0060
:106BD000400798000000EB00000F7800210037000C
:106BE0001E0078008000400060BE20000080400051
:106BF000900078002E009000808F50000800360032
:106C00009E007800410798001E0078008000400038
:106C100060BE2000008040009000780021079800AE
:106C20001E0078008000400060BE20000080400010
:106C3000900078001E009000808F50000800310006
:106C40009E007800310798001E0078008000400008
:106C500060BE20000080400090007800110798007E
:106C60001E0FE8001E007800E40F5000DCFF360025
:106C70000000EB00500798000000EB00000F7800C8
:106C80001B0037004E0090009E007800808F50005F
:106C9000160032003E0090009E007800808F500069
:106CA000120032001E0078008000400060BE20000C
:106CB00000804000100078008000EB0066F00700C4
:106CC0000002BE0040468000514680000001BE0028
:106CD0000400BE0081EF070040468800514688004E
:106CE0005E0090000000E800500798001E0FE800CA
:106CF0001E007800E40F5000E2FF36004846800096
:106D0000594680005E0090008000EB0052F00700C2
:106D10000001BE000800BE00CDEF0700D2CC2C0061
:106D2000C3042400A1F007003040880041408800DF
:106D3000304080004140800002002000431A2400BF
:106D40009AF007000004BE003040800041408000FF
:106D50000001BE0000002C00F15824005EEF070087
:106D600002002000A3472400B9EF07000001BE0085
:106D70000800BE00B6EF0700404688005146880074
:106D8000404680005146800018C0B30002602B00CE
:106D9000D37F2400F0EF07000000E0000100350081
:106DA0000044EB000804E000100032004046800080
:106DB0005146800018C0B30002002800834224001E
:106DC000E7EF07000000E00001003C000044EB009A
:106DD0000804E000050032007C010700204688001E
:106DE0003146880032C8A80007003700E0022000C2
:106DF000A04188003308A800F0002000E047880088
:106E00004000200020408800C046800062006000F2
:106E10000000E0000F003200104080008000EB0016
:106E20000DF0070002002000A347240088EF0700B0
:106E30002901070090418000610060000000E0002F
:106E400002003200C5E2A80001003700C5E2A90037
:106E5000D828A90090418000610060000000E00097
:106E600001003A000428EF0020408000E20F5000AB
:106E700025003200E20F500005003E000000E00057
:106E800008003200E10F5000140032009300370078
:106E9000E30F500043003200E40F5000770032004F
:106EA0008E0037003033230031F323001041880077
:106EB00021418800D0CC2C00C1DC23003041880067
:106EC000414188006000B80050418800614188005D
:106ED0001000200020408800800037009041800092
:106EE000610060000000E00075003200104080008A
:106EF0000000E00074003A00C5E2A8002000200075
:106F00002040880075003700914180000004200077
:106F1000008060000000E0006D00320032C8A9006F
:106F2000204680003146800018C0B30002002000D7
:106F3000432124008AEF07000000E00001003C002C
:106F40000044EB000804E0000B003A0020468000FB
:106F50003146800018C0B30032332300330E2C00BA
:106F60007DEF07000000E000010035000044EB0069
:106F70000804E00008003200D0022000A041880090
:106F80003308A800F0002000E047880040002000FF
:106F90002040880051003700300020002040880049
:106FA0004E00370090418000610060000000E0006A
:106FB0002E0032002046800031468000704088005C
:106FC000814088006E00070090408000A140800052
:106FD00018C0B3000200200003042C005EEF07007D
:106FE0000000E000010035000044EB000804E00070
:106FF0001800320090408000A140800001F0A20003
:10700000304088004140880030408000414080008E
:1070100018C0B300A29929009317240050EF07006D
:107020000000E00001003C000044EB000804E00028
:1070300004003200A09929009117240030408800F4
:10704000414088003040800041408000A20007009D
:1070500001003700C5E2A900D868A8002000200080
:1070600020408800000000001C003700C5E2A90095
:107070003208A9000428EF001800370020468000DD
:107080003146800018C0B30002002000C320240055
:1070900031EF07000000E000010035000044EB0084
:1070A0000804E0000C0032003308A80000012000B2
:1070B000E04788003428EF000428EF00070037007D
:1070C000000000000500370000000000030037004A
:1070D00000000000010037000000000011448000A3
:1070E000C0122000808F5000220036008228EF005E
:1070F00000000000B0468000640060000000E00076
:10710000FCFF3200DD42A800DD22A90000002C00B7
:10711000C8F80700000F78001E0078000000D100BA
:10712000000F7800804180001E0040000000D10068
:1071300080418800DD22A800DD42A900DD42A800D0
:10714000DD22A90000002E00BAF80700000F780029
:107150001E0078000000D100000F78007041800010
:107160001E0040000000D10070418800DD22A80010
:10717000DD42A9004F04BE000080FA0000000600B6
:107180000800FA00889FBE00B4408000C54080001F
:1071900070408000814080000001BE000400BE00FD
:1071A0004DEE0700008FBE00D0408000E14080001F
:1071B0001E01BE0049EE0700D0408800E140880073
:1071C000D0408000E140800018C0B30002002000E1
:1071D000032F2400E2EE07000000E00001003C0065
:1071E0000044EB000804E00005003200000020002D
:1071F000012F2400D0408800E14088000F003700B4
:10720000D0408000E140800018C0B30002002000A0
:10721000032F2C00D0EE07000000E0000100350035
:107220000044EB000804E0000400320000002000ED
:10723000012F2C00D0408800E1408800F040800001
:10724000014180000001BE001E00BE0022EE0700CA
:1072500020079800310798001041800021418000EC
:107260001E01BE0051EF07000004BE003441800043
:1072700045418000D0408000E14080000001BE0018
:107280000400BE0049EF07000001BE000800BE0078
:1072900012EE07000004BE005041800061418000F2
:1072A0002E019000BE01900040EF07000001BE00DB
:1072B0000800BE0009EE070090408800A140880049
:1072C0001E01BE00F2408800034188004F04BE004A
:1072D0000080FA00000006000600FA00881F78000F
:1072E00010079800210798001E019000AE01900041
:1072F000F0512800D11A2400F7ED0700E24F2D00CD
:107300000308240052EE070082862E00F3B9230002
:107310004FEE0700100798002107980018C0B3002F
:1073200002002C00F34724001E009000AE009000E5
:107330008BEE07000000E00001003C000044EB0081
:107340000804E0000400320000002C00F147240093
:1073500010079800210798001E009000AE009000D2
:1073600081EE070000007800000F78001E00780012
:107370004200DD00000F7800000021001E0F4000D9
:1073800000000000B0468000640060000000E000E3
:10739000FCFF3200DD42A800DD02A9001E007800DB
:1073A00024F80700DD02A800DD42A900904180001A
:1073B000610060000000E00001003200C5E2A800AA
:1073C0004F0478000080FA00000006000E00FA006A
:1073D000889FBE000000EB0020079800690037007E
:1073E0002E0090004300DD00E4004000208F2900C3
:1073F000008040001002BE004046800051468000E0
:107400000001BE000400BE0053EE07000000E000D3
:1074100007003A002E009000C300DD00208F2900F5
:1074200000804000301F7800201778005900370096
:107430002E0090004300DD00E4004000208F290072
:10744000008040001002BE0040468000514680008F
:1074500018C0B3000001BE000400BE003EEE0700ED
:107460000000E000010035000044EB000804E000EB
:10747000410032002E0090000000E9004300DD00D2
:10748000E4004000208F2900008040001002BE0070
:107490002E0090004300DD00E4004000208F290012
:1074A000008040001000BE000001BE000400BE00CD
:1074B00089ED07000004BE002E0090000000E900E6
:1074C000C300DD00208F2900008040001002BE00B4
:1074D0002E009000C300DD00208F290000804000B6
:1074E0001000BE000001BE000400BE007AED0700DF
:1074F0000001BE000800BE00D5ED0700300798006F
:10750000410798002E0090004300DD00E400400099
:10751000208F2900008040001004BE002E00900043
:10752000C300DD00208F2900008040001000BE0055
:107530003E019000CE0190009CEE07000001BE00CD
:107540000800BE0064ED070050079800610798002E
:1075500040468000514680005E019000EE019000A0
:107560005DED07003E019000CE019000B8ED0700F0
:10757000008FBE00070037002E0090000000E800DA
:1075800020079800AE00900070032000808F50000C
:1075900093FF36001E00BE004F04BE000080FA00BC
:1075A000000006001000FA00889FBE00914780008E
:1075B000803E2000808F500002003600F228EF004D
:1075C0000AA3A80080478000E50F50006B003A0036
:1075D000F028EF006000B800C0478800D14788005D
:1075E000815F800011079800815F8000210798006B
:1075F0000000EB00300798000000EB004007980007
:107600000000EB00000F7800210037001E0078001A
:107610008000400000BF2000008040009000780003
:107620002E009000808F5000080036009E007800E9
:10763000410798001E0078008000400000BF200035
:107640000080400090007800210798001E0078001C
:107650008000400000BF20000080400090007800C3
:107660001E009000808F5000080031009E007800BE
:10767000310798001E0078008000400000BF200005
:107680000080400090007800110798001E0FE8006D
:107690001E007800E40F5000DCFF36000000EB0015
:1076A000500798000000EB00000F78001B00370027
:1076B0004E0090009E007800808F5000160032002F
:1076C0003E0090009E007800808F50001200320033
:1076D0001E0078008000400000BF200000804000B5
