:100000000004040000000000120E0000AA0C000012
:10001000CE0C0000F20C0000160D00003A0D00009E
:10002000120E0000120E0000120E0000120E000050
:10003000120E0000320E00001E100000120E000012
:10004000120E0000C00E0000120E0000120E000082
:10005000361000001A0F0000CE0F0000120E000034
:1000600026100000120E0000120E0000120E0000FA
:10007000120E0000120E0000120E0000120E000000
:10008000120E0000120E0000120E0000120E0000F0
:10009000120E0000FE0E0000120E0000120E0000F4
:1000A000120E0000120E0000120E0000120E0000D0
:1000B000120E0000120E0000120E0000120E0000C0
:1000C000120E0000120E0000120E0000120E0000B0
:1000D000120E0000120E0000120E0000120E0000A0
:1000E000120E0000120E0000120E0000120E000090
:1000F000120E0000120E0000120E0000120E000080
:10010000120E0000120E0000120E0000120E00006F
:10011000120E0000120E0000120E0000120E00005F
:10012000120E0000120E0000120E0000120E00004F
:10013000120E0000120E0000120E0000120E00003F
:10014000120E0000120E0000120E0000120E00002F
:10015000120E0000120E0000120E0000120E00001F
:10016000120E0000120E0000120E0000120E00000F
:10017000120E0000120E0000120E0000120E0000FF
:10018000120E0000120E0000120E0000120E0000EF
:10019000120E0000120E0000120E0000120E0000DF
:1001A000120E0000120E0000120E0000120E0000CF
:1001B000120E0000120E0000120E0000120E0000BF
:1001C000120E0000120E0000120E0000120E0000AF
:1001D000120E0000120E0000120E0000120E00009F
:1001E0006610000096100000BE100000120E000005
:1001F000120E0000120E0000120E0000120E00007F
:10020800120E00005E0D0000820D0000A60D000019
:10021800CA0D0000EE0D0000120E0000120E0000C4
:10022800120E0000120E0000120E0000320E000026
:100238001E100000120E0000120E0000C00E00007A
:10024800120E0000120E0000361000001A0F0000F7
:10025800CE0F0000120E000026100000120E000043
:10026800120E0000120E0000120E0000120E000006
:10027800120E0000120E0000120E0000120E0000F6
:10028800120E0000120E0000120E0000FE0E0000FA
:10029800120E0000120E0000120E0000120E0000D6
:1002A800120E0000120E0000120E0000120E0000C6
:1002B800120E0000120E0000120E0000120E0000B6
:1002C800120E0000120E0000120E0000120E0000A6
:1002D800120E0000120E0000120E0000120E000096
:1002E800120E0000120E0000120E0000120E000086
:1002F800120E0000120E0000120E0000120E000076
:10030800120E0000120E0000120E0000120E000065
:10031800120E0000120E0000120E0000120E000055
:10032800120E0000120E0000120E0000120E000045
:10033800120E0000120E0000120E0000120E000035
:10034800120E0000120E0000120E0000120E000025
:10035800120E0000120E0000120E0000120E000015
:10036800120E0000120E0000120E0000120E000005
:10037800120E0000120E0000120E0000120E0000F5
:10038800120E0000120E0000120E0000120E0000E5
:10039800120E0000120E0000120E0000120E0000D5
:1003A800120E0000120E0000120E0000120E0000C5
:1003B800120E0000120E0000120E0000120E0000B5
:1003C800120E0000120E0000120E0000120E0000A5
:1003D800120E0000120E00006610000096100000B9
:1003E800BE100000120E0000120E0000120E0000D7
:0803F800120E0000120E0000BD
:101800000A000000AFBE20000EBD22000E018800BD
:1018100000000000000020000000E0000200320094
:1018200000012000200288000C000700A0B6230061
:101830000100200011000700000020000000E0006F
:101840000200320000000200000000005C3C0200C8
:10185000000000000040DA000000FE004440A90043
:10186000801920000000E00003003200000020008A
:10187000A00188004440A8000000060091018800F3
:10188000800078000000EB0015003700E280400087
:1018900032A0B4009101BA00E280400032A0B4004E
:1018A0009102BA00E280400032A0B4000002EB00D6
:1018B000472BDE00F507B200602CE10004003A007F
:1018C0000059EB008301E900FDFF3E0004003700F2
:1018D0006128E100010032000082EB000B000700EC
:1018E00011C3BA001101BA000604E00003003A0077
:1018F0000200E000E5FF3A0000000600F607B20033
:101900009601880082007800F5FF37003159BA004F
:101910008301E9000C0032002159BA008301E9007B
:10192000080032000400E00003003A00E2804000BA
:1019300032A0B400F5FF370011D9BA008301E900E5
:10194000FAFF3A008100E800E180400032A0B400D4
:1019500000000600809FBE00821F78000000FA0091
:101960008020A900201680004A00DE00614060004F
:101970000004A200614060000080FB006100600084
:101980004A00DD0022168000F1BF2F0081006100B7
:101990000100700020168800F2FF3700809FBE0013
:1019A000821F78000000FA008060A90020168000E5
:1019B0004A00DE00614060000004A2006140600057
:1019C0000080FB00610060004A00DD0022168000FC
:1019D000F1BF2F0081006100010070002016880017
:1019E000F2FF3700809FBE00821F78000000FA00DF
:1019F0008040A900201680004A00DE00614060009F
:101A00000004A200614060000080FB0061006000F3
:101A10004A00DD0022168000F1BF2F008100610026
:101A20000100700020168800F2FF3700809FBE0082
:101A3000821F78000000FA008080A9002016800034
:101A40004A00DE00614060000004A20061406000C6
:101A50000080FB00610060004A00DD00221680006B
:101A6000F1BF2F0081006100010070002016880086
:101A7000F2FF3700809FBE00821F78000000FA004E
:101A800080A0A900201680004A00DE0061406000AE
:101A90000004A200614060000080FB006100600063
:101AA0004A00DD0022168000F1BF2F008100610096
:101AB0000100700020168800F2FF3700809FBE00F2
:101AC000821F78000000FA008020A9002016800004
:101AD0004A00DE00614060000004A2006140600036
:101AE0000080FB00610060004A00DD0022168000DB
:101AF000F1BF2F00810061000100700020168800F6
:101B0000F2FF3700809FBE00821F78000000FA00BD
:101B10008060A900201680004A00DE00614060005D
:101B20000004A200614060000080FB0061006000D2
:101B30004A00DD0022168000F1BF2F008100610005
:101B40000100700020168800F2FF3700809FBE0061
:101B5000821F78000000FA008040A9002016800053
:101B60004A00DE00614060000004A20061406000A5
:101B70000080FB00610060004A00DD00221680004A
:101B8000F1BF2F0081006100010070002016880065
:101B9000F2FF3700809FBE00821F78000000FA002D
:101BA0008080A900201680004A00DE0061406000AD
:101BB0000004A200614060000080FB006100600042
:101BC0004A00DD0022168000F1BF2F008100610075
:101BD0000100700020168800F2FF3700809FBE00D1
:101BE000821F78000000FA0080A0A9002016800063
:101BF0004A00DE00614060000004A2006140600015
:101C00000080FB00610060004A00DD0022168000B9
:101C1000F1BF2F00810061000100700020168800D4
:101C2000F2FF3700809FBE00821F78000000FA009C
:101C3000E01680004F00DE00004078000004A200A3
:101C4000614060000080FB004F00DD00E216800074
:101C5000F1FF27008100610001007000E01688009C
:101C6000F3FF3700809FBE000000FA008460A900E7
:101C70006145800010C0B300E88F500001003E00B5
:101C80000040EB008100E800614588000004E000AE
:101C900035003200AC28EF00C04580000000E800AD
:101CA000C0458800104780000000E8001047880009
:101CB000A04680000000E800A04688008045800023
:101CC0000000E80080458800904580000000E800A2
:101CD00090458800F04580000000E800F04588004D
:101CE000204280000000E80020428800D0468000AA
:101CF0000000E800D0468800F04480000000E800C2
:101D0000F0448800F0448000E20F500001003600EB
:101D1000D668EF00304580000000E80030458800BC
:101D2000404580000000E8004045880040448000B5
:101D30005144800061004000E08048004044880039
:101D400051448800C04480000000E800C04488007E
:101D5000B04380000000E800B043880000458000E8
:101D60000000E80000458800104580000000E80001
:101D7000104588000080FA004F00BE0000400600B9
:101D8000809FBE00829FBE00849FBE00869FBE00D3
:101D90000000FA0084E0A9005AE8A900DDC2A90009
:101DA000E08520003002BE002003BE0010002000AD
:101DB000010020006011B8000000420081804A004C
:101DC00002014B0083814B00E4852000009ABE0095
:101DD0000292BE0011E1A90023E4A900E422A900B7
:101DE0007628EF000080FA004F03BE004F02BE00CD
:101DF0004F01BE004F00BE0000400600809FBE00A5
:101E00000000FA008760A900D1428000000820008D
:101E1000008060000000E000020032000BA3A80078
:101E2000010037001FE1A9000080FA004F00BE004A
:101E300000400600809FBE00829FBE000000FA00A6
:101E40008560A900D6C8BF008080FB0032118000E9
:101E500082417800028F200003F178000040E80002
:101E6000D6E8B700601680004C00DE0061406000DC
:101E70000004A200614060000080FB00610060007F
:101E80004C00DD0062168000F1FF2E008100610031
:101E900001007000601688009E28EF00D6C8BF00C1
:101EA000E14F500007003A00008F2000904078007A
:101EB00050C5B30080CF500034003200D668EF0028
:101EC00032003700D6C8BF00E24F50000B003A0086
:101ED000108F20009040780000C9B30080CF5000E0
:101EE00004003A00108F2000104078009AE8B700F4
:101EF00026003700D668EF0024003700D6C8BF00A0
:101F0000E64F500012003A00208F200090407800E9
:101F10009AC8BF0080C04000308F20001040780079
:101F200080C04000408F20001040780000C040007A
:101F30009AE8B700508F2000904078009AC8BF0000
:101F400080CF500011003200D668EF000F0037003C
:101F5000D6C8BF00E74F500006003A00608F20004F
:101F6000104078000080FB0068004000E0448800DA
:101F700006003700D6C8BF008080FB00E044800028
:101F8000808F500001003A00C608A8000080FA00C7
:101F90004F01BE004F00BE0000400600809FBE0003
:101FA0000000FA008580A900D7C8BF000040E80003
:101FB000D7E8B700000000001111800000102000D9
:101FC000008060000000E000FBFF3200D7C8BF00C7
:101FD0008080FB00C0468000808F500008003A00DF
:101FE000000000001111800000102000008060003F
:101FF0000000E000FBFF3200C4A2A9000C00370083
:10200000000000001111800000102000008060001E
:102010000000E000FBFF3200D7C8BF000080FB00DB
:10202000019F2000614078000080FB0020118800A3
:102030000080FA004F00BE00004006000000FA00D9
:102040008480A9000080FA00004006000000FA0029
:1020500085C0A9009540A900C648A800F502A800BF
:10206000F442A9000080FA0000400600801F7800BA
:102070000000FA008540A900C0438000E10F500035
:1020800003003200E20F5000070032000C0037005E
:10209000F502A800000000000000000000000000A1
:1020A000F502A90006003700F502A80000000000B4
:1020B0000000000000000000F502A9000000000080
:1020C0000080FA004F00780000400600809FBE00AC
:1020D000829FBE000000FA0090468000021A800035
:1020E0008001400001BE200081804100820878000C
:1020F0000000E8009046880000408000121A80002E
:102100008001400061BD200081804100820878008C
:102110000000E8000040880091C0A9000080FA009B
:102120004F01BE004F00BE0000400600809FBE0071
:10213000821F78000000FA0050458000211A8000BC
:102140000001400080BB2000000041000108780031
:1021500050458000311A80000001400020BC200062
:10216000000041000108780091E0A9000080FA0019
:102170004F0178004F00BE0000400600809FBE0067
:10218000829FBE000000FA0050458000411A800086
:1021900000014000C0BC20000000410001087800A0
:1021A00050458000521A800080014000C1BC2000D0
:1021B00081804100820878000000E80050458800D6
:1021C0009200A90050458000E40F500002003E003C
:1021D0000BA3A80001003700C8E8A8000080FA009F
:1021E0004F01BE004F00BE000040060003F0A200F9
:1021F000889FBE008A9FBE008C1F780018010700D0
:102200001F0133006450E1004F0032006420E10000
:102210005200320003826C0007003B000905D00029
:102220000306D000820F54000C065D000200390046
:10223000020032008901780003067800858255008B
:1022400004003D000003FD008103FD008502EA005B
:102250008B854200840F720002003B00600010007A
:10226000E08018006011B8000005EB007A28E1005A
:102270000A00390006007800C75DDD00F707B200EC
:10228000878075002D003700828171000A01780077
:10229000610560008180D1000080D3008502E900E3
:1022A000F9FF3B00060440008784480002003B0021
:1022B00060041400E0841C000988A30007003200B9
:1022C0008A81710082817100610164008904D100FA
:1022D0000884D3008B05E800170037000978A300B5
:1022E00013003A000B00E000130034008B05E900F6
:1022F0000804440089844C000A4474000978A3004F
:102300000D003A000B00E000070034008B05E900E7
:102310000804440089844C0001003A000B002000AE
:102320000978A300F7FF32000001EB00020037003C
:10233000828171000A0178008E0007000CF0A7006E
:1023400001F0A000D70037006420E10002003A004D
:10235000838F6C00D70033000801BE000200BE006E
:10236000D0003700889FBE008A9FBE008C1F780077
:10237000BB000700C200330003866C006450E1001C
:102380002E0032006420E100330032006150E10091
:102390002F0032006120E1003100320085855500B8
:1023A000EB07B000090020000804200005003700FA
:1023B0000804440089844C000A00310006034300ED
:1023C00087834B000001530081815B00F8FF3300DD
:1023D0000203BE000800A0000804440089844C00E9
:1023E000F6FF3900C639DD008301730001003200B9
:1023F000130020008904D1000884D3000998A300A9
:10240000050032000800A7000300A0008904D100E5
:102410000884D3008B05E8008904D1000884D30028
:102420000001EB000281D2005200070001F0A10080
:102430000CF0A70001F0A0009A0037006420E10032
:102440009C0032000801BE000200BE00F7FF37000A
:102450006120E100970032006000B800F3FF370010
:102460000000200001F82700F0FF370014002000D2
:10247000D7003700F4FF2F00D50037000001BE0061
:10248000620007000470A70003F0A1006509B10015
:10249000160032000D0035006828E1000600350006
:1024A000F0FF2F00F1FF27000300E00013003B00C6
:1024B0000100280000000500000040008180480065
:1024C0008502E900FCFF3A0008003700F88F42005F
:1024D00002003C008000EB00000005008100D100FC
:1024E0000080D3008502E800FCFF3A000300E00012
:1024F00002003B0060001000E080180000000600B1
:102500000001BE00410007000470A70003F0A10015
:1025100003F8A30013003A006509B100100032006F
:10252000090035006928E10002003500010028009B
:102530000000050000004000818048008502E9009D
:10254000FCFF3A0000000600F88F4200050035004D
:102550008100D1000080D3008502E800FCFF3A0032
:10256000000006008000EB00000005006011B800CC
:10257000B200370081002000618055000B003D0053
:102580000B00200061FE2F000100E1001D0034005F
:1025900082817100610164008904D1000884D30044
:1025A0000000E800FAFF3A007100200061006400BA
:1025B0000300700002006000090032006104440062
:1025C000E0844C000988A500050032008B05E80076
:1025D0006808E10002003A008904D1000884D300B1
:1025E000F20F20000258E10005003D00C75DDD004C
:1025F000F907B20089807500080078000000060025
:102600000BF827008B00780000000500C70ADE00E9
:10261000F107B200F50FB20008003200E1CF42002E
:10262000020032000170A00024000500810F70003C
:10263000010032000408050044000500810F70000D
:1026400002003A00140005008502E9000000400085
:1026500081C04800FCFF3B000170A0002400050081
:102660000004BE00E9FF07000003BE000405BE0031
:102670000200BE00E5FF0700844F75000000060061
:102680000200BE006450E100050036006420E10055
:10269000020036000968A30001003A000800BE00ED
:1026A0000160A0004F0678004F05BE004F04BE0039
:1026B00000000600F0FF2F00F1FF2700F9FF3700B0
:1026C000889FBE008A9FBE008C1F7800E4FF070031
:1026D000EBFF330003866C006450E10024003200FD
:1026E0006420E100270032006150E1002200320046
:1026F0006120E100210032008B854200EB07B10030
:102700000134B800003AB8000804420089844A0045
:10271000013AB8000030B8008880400009014A0042
:10272000040033000000400081804800020149009D
:102730008B05E900C909DD0083017000010032004A
:1027400013002000C814DE004814DD004709DE0035
:102750001200B200C808DE000884700085FF070080
:1027600001F0A1000CF0A70001F0A000CDFF3700A0
:102770006120E100CFFF32000801BE000200BE0070
:10278000F7FF37006150E100FCFF3A00C9FF370056
:102790006022B800060220000000D0008180D20034
:1027A0000482D2008582D2000000A0000202520002
:1027B00083825A00030031000202420083824A00F1
:1027C0000000A1000603E900F3FF3A000000060044
:1027D000889FBE008A9FBE00841F7800A0FF07006C
:1027E0004F00780011003300F0FF2F00838F6C0042
:1027F00006003B00040565000A00A700080037003A
:1028000009F0A6001000200008003700820F5400D5
:10281000838F5C00030039001000200001003E009F
:102820000000200009F0A7000000EA004F05BE00EC
:102830004F04BE000000E00000000600889FBE00BC
:102840008A9FBE0000827000040271000482710041
:10285000260032000004BE000200BE006011B80075
:102860006B092000950220000182CF000A00390088
:102870000541B1000082CF00070039000541B100D9
:102880000982CF00040039000541B1000882CF0061
:10289000010039000541B10005425200120032002A
:1028A0000A003B0082817100610164008100D10057
:1028B0000080D3008984D3000884D3008B05E8000E
:1028C0000442E800F7FF3A0007003700080444001C
:1028D00089844C0000004800818048008B05E90095
:1028E0000442E900F9FF3A0022FF07004F05BE004D
:1028F0004F04BE00000006000000000020C10000E0
:1029000000B20000574700000000000010C10000A6
:10291000009400004D4700000000000000C10000CE
:10292000007600004347000000000000E0C0000007
:10293000005800003947000000000000C0C000003F
:10294000003A00002F47000000000000A0C0000077
:10295000001C0000254700000000000080C00000AF
:10296000009300001D4700000000000040C0000070
:10297000000A0000164700000000000000C0000030
:10298000008100000E4700000000000080BF000032
:1029900000F90000064700000000000000000000F1
:1029A00000E00000FE46000000000000803F000044
:1029B000008E0000F3460000000000000040000010
:1029C000003E0000E846000000000000404000001B
:1029D00000EC0000DC460000000000008040000029
:1029E000009A0000D146000000000000A040000056
:1029F000004A0000C646000000000000C040000081
:102A000000B80000BD46000000000000E0400000EB
:102A100000260000B5460000000000000041000054
:102A200000940000AC4600000000000010410000CF
:102A300000040000A4460000000000002041000047
:102A4000007200009B4600000000000030410000C2
:102A500000E8000094460000000000004041000033
:102A6000005C00008E4600000000000050410000A5
:102A700000D2000087460000000000006041000016
:102A80000048000081460000000000007041000086
:102A9000007C00007546000000000000804100003E
:102AA000006C00006B460000000000008841000040
:102AB000006000006146000000000000904100003E
:102AC0000050000057460000000000009841000040
:102AD000004000004D46000000000000A041000042
:102AE000003400004346000000000000A841000040
:102AF000006800003B46000000000000B0410000FC
:102B000000A000003346000000000000B8410000B3
:102B100000D400002B46000000000000C04100006F
:102B2000000800002446000000000000C84100002A
:102B3000004000001C46000000000000D0410000E2
:102B4000002C00001646000000000000D8410000E4
:102B5000001800001046000000000000E0410000E6
:102B6000000400000A46000000000000E8410000E8
:102B700000F400000346000000000000F0410000E7
:102B800000C00000FB45000000000000F84100000C
:102B900000380000F2450000000000000042000084
:102BA00000A80000E845000000000000044200000A
:102BB00000200000DF450000000000000842000087
:102BC00000980000D5450000000000000C42000005
:102BD00000100000CC450000000000001042000082
:102BE00000880000C44500000000000014420000FE
:102BF00000F80000BC450000000000001842000082
:102C000000700000B5450000000000001C420000FC
:102C100000E80000AD450000000000002042000078
:102C200000600000A64500000A00FA00889FBE0070
:102C30008A9FBE006000B8006011B80010079800BD
:102C4000210798003207980043079800D14280007E
:102C500000082000008060000000E0000B023A0045
:102C6000D142800000202000008060000000E000D1
:102C700005003200414680000020200000806000F6
:102C80000000E000050032003A28EF00C668A90005
:102C9000C928A900C948A900C968A900D041800075
:102CA000E30F5000A8003200E30F500005003E0083
:102CB000E10F50005C003200E10F50001C003E00AC
:102CC00009003700E50F5000AA013200E50F50005F
:102CD000F4003900E70F5000CA013200E80F50003D
:102CE000BA003200E9013700D14280000020200004
:102CF000008060000000E000D301320008040700FB
:102D00000004E00003003A0020002000D0418800C9
:102D1000DE013700C668A9005B08A800F0002000AB
:102D20006047880070022000E0428800D701370029
:102D3000FB0307000004E00039003A004628EF00DA
:102D40004A28EF004828EF00430307000000E00096
:102D50000E0032000000EB00000F78000700370083
:102D600000B920001E0040009040780080B920008B
:102D70001E004000014878001E0FE8001E00780089
:102D8000E70F5000F6FF3600C8A8A80040468000B4
:102D9000700060000000E000120032002E03070007
:102DA0000000E0000F0032000000EB00000F780090
:102DB0000800370000B920001E0040009040780055
:102DC00080B920001E0040006800400001487800E3
:102DD0001E0FE8001E007800E70F5000F5FF3600D8
:102DE000C8C8A800414680000002200000806000A2
:102DF0000000E00005003A00414680000004200089
:102E0000008060000000E00003003200100020009D
:102E1000D04188009D0137003A28EF009B01370020
:102E20003A28EF0099013700414680000002200057
:102E3000008060000000E00016003200B8030700C8
:102E40000004E00012003A0050C5B300E50307009B
:102E50005828EF000000EB00000F78000700370053
:102E6000C04280004300DD001E00400081B9200008
:102E700061407800DB0307001E0FE8001E007800A9
:102E8000E70F5000F6FF360084010700010037000D
:102E90003A28EF00414680000004200000806000D6
:102EA0000000E000170032009D0307000004E0006E
:102EB00013003A0050C5B300CA03070010002000F9
:102EC000C04288000000EB00000F780007003700C8
:102ED000C04280004300DD001E00400081B9200098
:102EE00061407800BF0307001E0FE8001E00780055
:102EF000E70F5000F6FF36006801070001003700B9
:102F00003A28EF0041468000000220000080600067
:102F10000000E0004E013200414680000002200027
:102F2000008060000000E0004B013200E1428000C0
:102F3000B0022000808F5000490132003000200094
:102F4000D0418800510137004146800000802000B8
:102F5000008060000000E000120032004146800066
:102F600000402000008060000000E000030032000C
:102F700080002000D041880044013700C948A900E2
:102F8000C968A900C668A9005B08A800F000200075
:102F900060478800B0022000E04288003A28EF0035
:102FA0003A013700C948A900C968A900C668A90044
:102FB0005B08A800F0002000604788003002200075
:102FC000E04288003A28EF0030013700D14280000B
:102FD00000202000008060000000E0002F00320090
:102FE000E08520003004BE002005BE00C083200024
:102FF0005001BE004000BE000002540081825C000F
:1030000002035D0083835D00300620000100200084
:103010006011B8000020E10001A8E10002B0E10069
:1030200003B8E10006003600B04580000000E00073
:103030000D013A0040002000D04188001301370004
:103040002142800000A62E00808F5000080136002B
:10305000E08520003002BE002003BE00C0832000B7
:103060005001BE004000BE000020E10001A8E100C8
:1030700002B0E10003B8E10006003600B045800070
:103080000000E000FC003A0040002000D041880031
:10309000FE0037004428EF00FC0037003A28EF001C
:1030A000FA0037001E0307000004E00049003A0060
:1030B00050C5B3004B0307000000EB00000F780081
:1030C0000500370080BA20001E0040001040780044
:1030D000440307001E0FE8001E007800E70F5000B1
:1030E000F8FF3600F0C0B3003E03070080C7B3000E
:1030F0003C0307000040EB003A030700E085200096
:103100005001BE004000BE004818DE0000407800BC
:1031100034030700E08520005001BE004000BE00DF
:1031200003007800004078002E030700E0852000AF
:103130005001BE004000BE004810DE00481ADD000D
:10314000000072000040780026030700E0852000A0
:103150005001BE004000BE00020078000040780030
:1031600020030700E08520005001BE004000BE00A3
:103170004808DE004812DD000000720000407800C0
:1031800018030700E08520005001BE004000BE008B
:10319000010078000040780012030700E08520005D
:1031A0005001BE004000BE004800DE00480ADD00BD
:1031B00000007200004078000A030700E08520004C
:1031C0005001BE004000BE0000407800050307002B
:1031D00003003700904280000000E8009042880021
:1031E0006000B8006011B80010079800210798002F
:1031F0003207980043079800C90207000004E00066
:1032000054003A0050C5B300F60207000000EB007E
:10321000000F78000500370080BA20001E00400033
:1032200010407800EF0207001E0FE8001E00780033
:10323000E70F5000F8FF3600A0CAB300E90207000C
:10324000FA02070054E8B700F802070055E8B70093
:10325000F602070056E8B7000000EB00000F780008
:10326000230037001E009000AE0090003E01900049
:10327000CE019000C819DD004812DE008301720003
:103280004811DD00480ADE0002017200C808DD00B6
:103290004802DE00810072004800DD00100798003F
:1032A000210798003207980043079800DF020700C3
:1032B0000080FB008000EB006011B8001E0290004F
:1032C000AE0290003E039000CE039000000042004A
:1032D00081804A0002014B0083814B001007980057
:1032E0002107980032079800430798001E0FE80056
:1032F0001E007800E70F5000DAFF3600E08520005E
:103300005001BE004000BE001E029000AE029000C0
:103310003E039000CE0390000020E10001A8E100F0
:1033200002B0E10003B8E10003003A0056C8BF0054
:10333000E74F500004003200904280000000E80097
:10334000904288000600370050002000D0418800DD
:1033500003003700904280000000E800904288009F
:1033600090428000E30F5000450036003A28EF00FD
:10337000460037006A0207000004E0001F003A0020
:1033800050C5B300970207000000EB00000F780063
:103390000500370080BA20001E0040001040780071
:1033A000900207001E0FE8001E007800E70F500093
:1033B000F8FF360050C5B3008A02070054C8BF00AA
:1033C0008802070055C8BF008602070056C8BF0024
:1033D0008402070070002000D04188004428EF00DC
:1033E000E08520005001BE004000BE00C4832000E4
:1033F000009ABE000292BE00240037003A28EF0077
:103400002200370020428000EA0F50001E003600E4
:1034100086020700A1CAB300814F500004003A00A1
:103420003F02070080002000D041880017003700CD
:10343000904280000000E800904288004000200098
:10344000D041880011003700000000000F00370055
:10345000000000000D003700000000000B003700E6
:1034600000000000090037000000000007003700DE
:1034700000000000050037000000000003003700D6
:103480000000000001003700000000004F05BE00F2
:103490004F04BE000080FA00000006000400FA009D
:1034A00050468000EF0F500008003A00E1428000D3
:1034B000B0022000808F500004003A005B08A80092
:1034C00010002000604788005C28EF0000CFB300A8
:1034D000440207000040EB00420207000040EB00FE
:1034E000400207000000EB00000F780005003700E5
:1034F0004E02070001AF20009E8040008048780007
:103500001E0FE800F00720009E007800808F50001A
:10351000F7FF360010B1200010407800F04F500047
:1035200012013A000000EB00000F7800090037009C
:10353000C04280004300DD001E00400081B9200031
:10354000E140780080BA20001E0040000148780069
:103550001E0FE8001E007800E70F5000F4FF360051
:1035600080B62000104078000080FB008000EB0057
:103570006011B800E4852000009ABE000292BE00EF
:10358000E08520005001BE004000BE00C819DD00EB
:103590004812DE00830172004811DD00480ADE0097
:1035A00002017200C808DD004802DE0081007200DE
:1035B0004800DD00E4852000009ABE000292BE00B3
:1035C00090B62000104078000082FB008002EB00E3
:1035D0006033B800E08520005001BE004000BE000E
:1035E0000000420081804A0002014B0083814B00B1
:1035F000E4852000009ABE000292BE00E085200013
:103600005001BE004000BE00C819DD004812DE00B7
:10361000830172004811DD00480ADE0002017200D9
:10362000C808DD004802DE00810072004800DD00AD
:10363000E4852000009ABE000292BE00A0B62000E1
:10364000104078000082FB008002EB006033B8007D
:10365000E08520005001BE004000BE000000420096
:1036600081804A0002014B0083814B00E4852000E9
:10367000009ABE000292BE00E08520005001BE000C
:103680004000BE00C819DD004812DE008301720050
:103690004811DD00480ADE0002017200C808DD00A2
:1036A0004802DE00810072004800DD00E485200051
:1036B000009ABE000292BE00B0B620001040780012
:1036C0000082FB008002EB006033B800E085200040
:1036D0005001BE004000BE000000420081804A0050
:1036E00002014B0083814B00E4852000009ABE005C
:1036F0000292BE00E08520005001BE004000BE00E6
:10370000C819DD004812DE00830172004811DD0097
:10371000480ADE0002017200C808DD004802DE002F
:10372000810072004800DD00E4852000009ABE00A0
:103730000292BE00C0B62000104078000082FB005C
:103740008002EB006033B800E08520005001BE002D
:103750004000BE000000420081804A0002014B0090
:1037600083814B00E4852000009ABE000292BE00D7
:10377000E08520005001BE004000BE00C819DD00F9
:103780004812DE00830172004811DD00480ADE00A5
:1037900002017200C808DD004802DE0081007200EC
:1037A0004800DD00E4852000009ABE000292BE00C1
:1037B000D0B62000104078000082FB008002EB00B1
:1037C0006033B800E08520005001BE004000BE001C
:1037D0000000420081804A0002014B0083814B00BF
:1037E000E4852000009ABE000292BE00E085200021
:1037F0005001BE004000BE00C819DD004812DE00C6
:10380000830172004811DD00480ADE0002017200E7
:10381000C808DD004802DE00810072004800DD00BB
:10382000E4852000009ABE000292BE00E0B62000AF
:10383000104078000082FB008002EB006033B8008B
:10384000E08520005001BE004000BE0000004200A4
:1038500081804A0002014B0083814B00E4852000F7
:10386000009ABE000292BE00E08520005001BE001A
:103870004000BE00C819DD004812DE00830172005E
:103880004811DD00480ADE0002017200C808DD00B0
:103890004802DE00810072004800DD00E48520005F
:1038A000009ABE000292BE00F0B6200010407800E0
:1038B0000082FB008002EB006033B800E08520004E
:1038C0005001BE004000BE000000420081804A005E
:1038D00002014B0083814B00E4852000009ABE006A
:1038E0000292BE00E08520005001BE004000BE00F4
:1038F000C4832000009ABE000292BE000000EB00CC
:10390000000F78000D00370000AF20001E004000BF
:103910009040780000B720001E0040000148780069
:1039200000B720001E00400010407800AE4090001C
:1039300000C04000204798001E0FE8001E007800DD
:10394000FF0F5000F0FF360000B1200090407800DB
:103950002E40900080CF500002003A00C968A800B5
:103960003B003700C968A9003900370000AF2000CC
:103970009040780000C2B30080CF50000A003200AF
:1039800000AF20009040780000C4B30080CF50000A
:103990000500320000AF20009040780000C3B30063
:1039A00080CF50002A003A0000AF2000104078007D
:1039B0000080FB00504388000000EB00000F7800FF
:1039C00009003700C04280004300DD001E004000B7
:1039D00081B92000E140780000BB20001E004000BB
:1039E000014878001E0FE8001E007800E70F500025
:1039F000F4FF3600A0AF2000104078000080FB00EC
:103A00008000EB0030438800414388003043800051
:103A100041438000C000DD000000200030438800EA
:103A200041438800B0AF2000104078000081FB00C7
:103A30008001EB00304380004143800002004000E1
:103A4000838048003043880041438800C948A8006B
:103A50000080FA00000006000E00FA0010002000AE
:103A6000000F78000000EB00100798000000EB004A
:103A70002007980010C0B300004F98000000EB0032
:103A8000300798004C68EF00504280000000E000D2
:103A900079003A00A20007000004E00005003200AF
:103AA0004628EF004A28EF004828EF000000EB000E
:103AB0007E00370000CFB300CA000700BB0007003C
:103AC0000080FB0050079800B80007000080FB0052
:103AD000600798005E009000E10F500003003A007C
:103AE0006E009000E10F500053003200DE009000A5
:103AF0006E009000808F5000030032005E00900046
:103B0000104F980020003700304280009E0078005F
:103B1000808F50000B00310001B920002E00900072
:103B200000804000904078000E48900000C0600087
:103B30000080FB000000EA004F00DE00104F9800FC
:103B400007003700304280001E00680000F0A70028
:103B50000000EA000000E9004F00DE00104F98006E
:103B60001E4890000004E00007003A009E00780024
:103B7000110798001E009000E80F500002003E0060
:103B80009E009000414288001E489000E14F500086
:103B90000B003A0001B920002E0090000080400088
:103BA000904078000E48900080C0700002B920005C
:103BB0002E00900000004100014878000D00370001
:103BC00001B920002E0090000080400010407800D5
:103BD000804078000E48900000C0EA0000C06000FD
:103BE0008040780002B920002E00900000004100C3
:103BF000014878001E489000580007001E0FE8009A
:103C00000E48900000404000004F98000E48900081
:103C10000004E00005003A002E0090000000E800DB
:103C20002007980010C0B300004F98002E009000AD
:103C3000E70F5000A1FF3600000420009E0078002E
:103C4000808F50000C0036004CC8BF000004E0001C
:103C500009003A009E009000314288003042800006
:103C60000000E00002003A001000200050428800EE
:103C700010002000300798003E0090000000E00097
:103C80000400320000B92000104078000004E00079
:103C900005003A004628EF004A28EF004828EF00C8
:103CA0000000EB00300798003E0090000080FA0012
:103CB000000006000000FA00F4E2A900F0E2A9000A
:103CC0000080FA00000006000000FA00F4E2A900FB
:103CD000F0E2A8000080FA00000006000200FA00EE
:103CE0000040EB00004F7800F0E2A8009117800040
:103CF00000082000008060000000E00003003200A7
:103D000010C0B300004F7800020037000040EB0005
:103D1000004F78001E4078000080FA000000060086
:103D20000200FA00E3FF0700001E20005700070012
:103D3000E5FF07006004200054000700E7FF0700CC
:103D4000004F7800A019200050000700DEFF070098
:103D50001E4078000080FA00000006000200FA0011
:103D6000004F78001E4078000004E0000700320099
:103D7000D0FF07006000200044000700D2FF0700CA
:103D8000000420004100070006003700C9FF0700BB
:103D9000C00320003D000700CBFF0700A00020006B
:103DA0003A0007000080FA00000006000200FA0056
:103DB000C0FF07006000200034000700C2FF0700BA
:103DC0009000200031000700C4FF0700004F78007A
:103DD000700320002D0007001E4078000080FA00CC
:103DE000000006000400FA00204798000040EB00A5
:103DF000004F7800080037002E40900061406000BE
:103E0000D6FF07002E4090000080FB000000D1008C
:103E1000204798001E4FE8001E407800E74F5000F2
:103E2000F5FF36000080FA00000006000200FA00EC
:103E30000040EB00104798000040EB00004F780076
:103E40000C0037001E4090000080FB000000D100F5
:103E500010479800D5FF07000004E000040032007E
:103E60009E40900000C8B30000C07000104798004A
:103E70001E4FE8001E407800E74F5000F1FF36006B
:103E80001E4090000080FA00000006000200FA00C8
:103E9000000F78008780A9001821EF009E007800AD
:103EA000800220000088B90000007800E008880047
:103EB00021E1A80000000000310480000000210082
:103EC000008060000000E000FBFF320021E1A9005B
:103ED0000080FA00000006000000FA00900A0700C7
:103EE000F60B07000E000700D8090700C500070001
:103EF0000601070037070700DC0C07006E0D0700FE
:103F00007D0907002009070047FB0700BA0D0700DD
:103F10009B0D07005C0107000080FA00000006000E
:103F20000000FA00D14280000010200000806000F4
:103F30000000E000A300320060478000F00F500056
:103F400016003200F00F500005003E00E10F500057
:103F500047003200EF0F5000490032009600370052
:103F600001022000810F50000600320051052000A0
:103F7000810F500089003200F50F5000140032000C
:103F80008D00370050468000E10F500085003A0058
:103F90005046800060478800870037005A48A800D4
:103FA0000000200001172400F04088000141880033
:103FB000C5E2A8005A08A8005A88A800401F20009F
:103FC000004788005BC8A9005B68A9007A00370039
:103FD0005A88A8008039200000478800F0468000F9
:103FE000F90F500005003A0000002000010E2400E7
:103FF000F0408800014188001A003700F146800037
:1040000020032000808F500005003A0000002000AF
:10401000010A2400F04088000141880011003700A7
:10402000F1468000B0042000808F500005003A0067
:104030000000200001042400F040880001418800B5
:1040400008003700F146800040062000808F5000B5
:1040500004003A000000200001F82300F04088002E
:10406000014188005B68A8005BC8A80052003700C7
:10407000560007005A48A9005A68A9004E003700A8
:1040800052000700E04280006101B80080FE2F006E
:10409000F1FF2F0002004000838048003201200021
:1040A00003002000820F5000838F58003F003E0025
:1040B000006001002F0037003E0037001700370076
:1040C0001C0037000F0037003A0037001C00370093
:1040D000380037000E003700360037003500370053
:1040E0001100370033003700160037003100370069
:1040F000170037002F003700180037001A0037006C
:10410000240037005A48A9005A68A9002200370045
:104110005A48A9005A68A9001F0037005A48A90048
:104120005A68A9001C0037005A48A9005A68A9001B
:10413000190037005A48A9005A68A900160037002C
:10414000150037005A48A9005A68A9001200370024
:104150005A48A9005A68A9000F0037005A48A90018
:104160005A68A9000C0037005A48A9005A68A900EB
:10417000090037000000200001172400F0408800EB
:10418000014188005A88A800401F2000004788008D
:1041900001003700000000000700370000000000A9
:1041A0000500370000000000030037000000000099
:1041B0000100370000000000604780005046880082
:1041C0005B08A9000080FA00000006000000FA0069
:1041D000F5E2A900DC82A80023E4A90011E1A9000E
:1041E0001FE1A900F522A8005B88A9005B68A9006F
:1041F0005BC8A900C5E2A9005A08A9000080FA001E
:10420000000006000000FA00A0438000E20F50000A
:1042100018003200E20F500005003E000000E000F0
:1042200008003200E10F50000C003200350037006A
:10423000E30F500020003200E40F50002400320051
:104240003000370050468000F00F500026003A0042
:1042500010002000A04388002A003700504680004C
:10426000F50F500022003A0020002000A0438800F3
:1042700024003700D0428000680060000000E000A9
:1042800008003200D1428000000021000080600060
:104290000000E0000300320030002000A04388004E
:1042A0001800370050468000F50F50001200320011
:1042B0007428EF00130037000002200060478800D8
:1042C0005B08A80040002000A04388000D003700D4
:1042D0005146800000022000808F5000080032000C
:1042E0007428EF00070037000000000005003700C9
:1042F000000000000300370000000000010037004C
:10430000000000000080FA00000006000000FA0033
:104310005146800000022000808F50004D003A007E
:1043200090438000E30F500036003200E30F50004E
:1043300003003E00E10F50001B0032005000370028
:10434000E40F50003D003200E70F500045003A00F6
:10435000B04580000000E0000F0032005AE8A800DD
:10436000C442A80023E4A800DDC2A8006046800083
:10437000600888000621EF0084E0A90011E1A80090
:104380001421EF008760A9001FE1A80010002000A1
:10439000904388003A00370023E4A900E422A900F2
:1043A000C442A90036003700D14280000008200036
:1043B000008060000000E00004003A00C442A90050
:1043C00030002000904388002D00370041468000D7
:1043D00000102000008060000000E0002300320098
:1043E00000022000E04288005B08A800F0002000E6
:1043F000604788006000200090438800C442A90004
:104400001F003700B143800070468000808F50004D
:104410001800390040468000640060000000E000A1
:104420000300320070002000904388001400370021
:10443000400020009043880011003700B045800004
:104440000000E0000D003A0070002000904388005A
:104450000B0037005AE8A900700020009043880044
:1044600007003700000000000500370000000000D2
:1044700003003700000000000100370000000000CA
:104480000080FA00000006000400FA000000EB00C3
:104490001007980030468000640060000000E000D3
:1044A000B3003200C0438000E10F50000D00320025
:1044B000E10F500003003900E20F500040003200CD
:1044C0009E00370081E3A8008DE3A800F442A80015
:1044D000F502A90083E3A800C648A9009540A800FA
:1044E000A0003700D142800000082000008060005A
:1044F0000000E0001D0032000000EB00000F78001B
:10450000140037001E0078008000400000BF220029
:1045100000804000100078008000D1001E0078006C
:104520000001400000BF22000000410001087800A7
:104530001E0078008000400000BF22000080400084
:10454000100078009E009000008040001007980046
:104550001E0FE8001E007800E70F5000E9FF36004C
:104560001E0090004300DE00604388000000EB0066
:10457000000F7800070037001E0078008000400020
:1045800000BE22000080400001002E0001087800DB
:104590001E0FE8001E007800E70F5000F6FF3600FF
:1045A0009540A80081E3A8008DE3A800F442A8008C
:1045B000F502A90083E3A800C648A90069003700F6
:1045C000D142800000082000008060000000E00070
:1045D0004B003A000000EB00000F78002800370085
:1045E0001E0078008000400000BF220000804000D4
:1045F000100078008000D1001E007800000140000B
:1046000000BF220000004100010878001E00780071
:104610008000400000BF2200008040009000780031
:10462000803E2000808F500007003E001E00780072
:104630008000400000BF2200008040001000780091
:104640000000E00005003A00204480009E00900039
:104650000080400010079800080037001E00780016
:104660008000400000BF2200008040001000780061
:104670009E00900000804000100798001E0FE80088
:104680001E007800E70F5000D5FF36001E00900096
:104690004300DE00100798009E009000214488002F
:1046A0009E009000000320000088B9000000780000
:1046B0008000EB00704388008143880070438000D5
:1046C00081438000B25E20000289B90002017800B7
:1046D0006002B9008401780003014100B35E20004C
:1046E0000300B8000101410082007800029F24000D
:1046F0002300200026F807007043880081438800CB
:104700000000EB00000F7800070037001E00780063
:104710008000400000BE22000080400001002C000C
:10472000010878001E0FE8001E007800E70F500017
:10473000F6FF3600A228EF000A003700114580007E
:1047400070478000808F5000030036000080EB002F
:10475000C04388000300370070002000C043880079
:1047600000000000C04380000000E800C043880053
:104770004146800000082000008060000000E0004A
:1047800066003200C8E8A900AA28EF007A28EF00E6
:104790000000EB00000F7800090037001E007800D1
:1047A0008000400080BB2000008040009000780026
:1047B000D043800000804000D04388001E0FE800F6
:1047C0001E007800E40F5000F4FF3600D143800053
:1047D0005000200000017800110009008280D800FC
:1047E000D0438800D043800001202000008050008A
:1047F000D0438800D1438000201420000088B900F5
:104800008000780040292000000178001100090094
:104810008280D800D04388007C28EF000000EB00A5
:10482000000F7800090037001E007800800040006B
:1048300020BC20000080400090007800E043800011
:1048400000804000E04388001E0FE8001E00780052
:10485000E40F5000F4FF3600E143800050002000D8
:1048600000017800110009008280D800E043880030
:10487000E04380000020B100E0438800E143800075
:10488000201420000088B900800078004029200012
:1048900000017800110009008280D800E043880000
:1048A000D1438000E043800000804000F043880056
:1048B000F143800000448000808F500004003E00DF
:1048C000F143800010448000808F50000E003100C2
:1048D000F1438000F0092000808F50000F003E005F
:1048E000B0458000E10F500009003A00D14280003D
:1048F00000082000008060000000E0000600320098
:10490000C908A80005003700C908A900030037003E
:104910000000000001003700000000000080FA00E5
:10492000000006000E00FA000040EB00604798000F
:104930000000EB00000F78006000B800100798003E
:10494000210798001E009000AE0090008100D10069
:104950000080D30010079800210798000000200075
:1049600001002000500798006107980025003700DB
:104970000060FE004E48900032E0B7005E009000FC
:104980001000BA00400798004E0090006047980061
:104990006E4090000080FB001E0F40004E00900013
:1049A0004880DE00604798006E4090000080FB0069
:1049B0001E0F40005E0090001080BA004007980073
:1049C0004E009000604798006E4090000080FB0011
:1049D0001E0F40005E009000EE009000620040005C
:1049E000E080480050079800610798001E00900082
:1049F000AE00900062004000E08048001007980080
:104A0000210798001E019000AE019000F0BF2A001F
:104A100001002000800F5100818F5900D4FF360023
:104A200000002000810F20005007980061079800C7
:104A30004E48900032E0B7005E0090001000BA00CF
:104A4000400798004E0090006F00600040079800FB
:104A50004E009000604798006E4090000080FB0080
:104A60001E0F400040002000810F200050079800DA
:104A7000610798004E48900032E0B7005E00900059
:104A80001000BA00400798004E00900067006000D8
:104A9000400798004E009000604798006E409000DC
:104AA0000080FB001E0F400060002000810F2000EE
:104AB00050079800610798004E48900032E0B70018
:104AC0005E0090001000BA0040079800CE009000F1
:104AD0007008200000806000400798004E009000A1
:104AE000604798006E4090000080FB001E0F400061
:104AF00080002000810F2000500798006107980077
:104B00004E48900032E0B7005E0090001000BA00FE
:104B100040079800CE009000700C200000806000DC
:104B2000400798004E009000604798006E4090004B
:104B30000080FB001E0F4000A0002000810F20001D
:104B400050079800610798004E48900032E0B70087
:104B50005E0090001000BA0040079800CE00900060
:104B6000F00D200000806000400798004E0090008B
:104B7000604798006E4090000080FB001E0F4000D0
:104B8000C0002000810F20005007980061079800A6
:104B90004E48900032E0B7005E0090001000BA006E
:104BA00040079800CE009000700620000080600052
:104BB000400798004E009000604798006E409000BB
:104BC0000080FB001E0F4000E0002000810F20004D
:104BD00050079800610798004E48900032E0B700F7
:104BE0005E0090001000BA0040079800CE009000D0
:104BF000300E200000806000400798004E009000BA
:104C0000604798006E4090000080FB001E0F40003F
:104C100000012000810F20005007980061079800D4
:104C20004E48900032E0B7005E0090001000BA00DD
:104C300040079800CE009000F00320000080600044
:104C4000400798004E009000604798006E4090002A
:104C50000080FB001E0F4000000000006E4090002E
:104C60000080FA00000006000000FA001002800038
:104C70000050A1000060A1000070A1001002880097
:104C80000421EF002005800000C0A10000D0A0009A
:104C900000E0A000200588008460A9009460A800BE
:104CA0000021EF00F0F920001008880005E1A800BD
:104CB0001021EF00800880000040A0000050A000FC
:104CC000800888003005800000C0A00000D0A0004F
:104CD00000E0A0003005880084E0A90094E0A8006E
:104CE0000621EF001E21EF00F00880000040A10027
:104CF0000050A000F00888008005800000C0A100DE
:104D000000D0A00000E0A000800588008760A90016
:104D10009760A800803E2000D00888001421EF0092
:104D20002021EF00900580000000A0000010A000EE
:104D30000020A100900588008780A9009780A90025
:104D40001821EF0080022000E0088800C222EF0056
:104D5000C422EF00C002A800C022A800C042A900DF
:104D6000C442A900C062A900C462A900C082A9000F
:104D7000C482A900C0A2A900C4A2A900C0E2A900DF
:104D8000C4E2A800C122A900C522A900C142A9000D
:104D9000C542A900C1E2A900C5E2A900CA22EF00EC
:104DA000CC22EF00C8C2A900C8E2A900C982A900AC
:104DB000CD82A900C9A2A900CDA2A900C9C2A9009B
:104DC000CDC2A900C9E2A900CDE2A900D222EF001C
:104DD000D422EF00D062A900D462A900D1A2A90018
:104DE000DD62A900D1C2A800DA22EF00DC22EF00C8
:104DF000D802A900DC02A800D822A800D842A80046
:104E0000D882A900DC82A800D902A900DD02A8008E
:104E1000D922A900DD22A800D942A900DD42A900BB
:104E2000D962A900DD62A800D9A2A900DDA2A8006C
:104E3000D9C2A900DDC2A900D9E2A900DDE2A9001A
:104E4000E222EF00E422EF00E002A900E022A90044
:104E5000E422A900E062A900E462A800E082A900BF
:104E6000E0A2A800E0E2A800EA22EF00EC22EF00B6
:104E7000E822A900EC22A900E842A800E862A90003
:104E8000F222EF00F422EF00F002A900F402A900E0
:104E9000F022A900F422A900F042A900F442A800DF
:104EA000F062A900F462A800F0C2A800F102A90013
:104EB000F502A800F122A900F522A800F1E2A9005C
:104EC000F5E2A90021E2A90021A2A9002182A900FE
:104ED0002162A800001180000080A1000090A100C4
:104EE0000011880020E2A90020C2A90020A2A90088
:104EF0002082A9002062A900001180000010A100FA
:104F00000020A100001188002002A900500120000B
:104F10004011880023E2A90023C2A90023A2A9000E
:104F20002362A9002342A9002322A9002302A90089
:104F3000101180000060A1000070A1001011880015
:104F400022A2A9002282A9002262A9002242A9006D
:104F50002222A9002202A9004005800000C0A00072
:104F600000D0A10000E0A0004005880050058000AE
:104F70000000A0000010A1000020A0005005880043
:104F80008580A9009580A8008560A9009560A8008B
:104F900021E2A8002342A800009F200051C5B300D1
:104FA00001487800109F200001C1B300014878003B
:104FB000209F200001C9B30001487800309F2000E5
:104FC0008040EB0001487800409F200080C0EB004B
:104FD00001487800109F200090407800209F20001A
:104FE0001040780080C04000309F200010407800C2
:104FF00080C04000409F20001040780080C04000EA
:10500000509F20000148780010002200001C8800FA
:1050100070002000501C8800A0002000101C880098
:1050200080242000401C8800003E2000201C8800B6
:10503000300580000000A1000010A1000020A000A9
:10504000300588008480A9009480A80081E3A8002E
:1050500010002000601C880070002000B01C880038
:10506000A0002000701C880080242000A01C880064
:10507000003F2000801C8800500580000080A100B7
:105080000090A10000A0A0005005880085C0A900E4
:1050900095C0A8008DE3A8009540A9004382A9000F
:1050A0004362A9004342A8004322A9004302A90089
:1050B00042E2A90042C2A80042A2A8001012800049
:1050C0000020A0000030A0000040A10010128800C5
:1050D000101280000000A1000010A0001012880033
:1050E00041E2A800400580000080A1000090A000DF
:1050F00000A0A000400588008540A9009540A900B7
:10510000102080000000A1000010A0000020A000DE
:10511000102088002124A800002180000060A10048
:105120000070A000002188002104A9004006200092
:105130004021880040062000802188001021800046
:1051400000A0A00000B0A0001021880023E4A90066
:1051500023C4A90020032000302188002003200060
:10516000702188004124A800002280000060A10076
:105170000070A00000228800809127004022880053
:105180001022800000A0A00000B0A0001022880023
:1051900043E4A90043A4A800000E260030228800A2
:1051A00043E4A80001E4A8000103A90000E3A8006B
:1051B00000C3A90000A3A9000083A8000183A900DF
:1051C000001880000000A0000010A1000020A00036
:1051D000001888005118800000FE2F000080600039
:1051E0000000A0005018880051188000F00F2E0019
:1051F00080806000001020000100700050188800BE
:105200000203A9000223A9000243A9000263A90026
:10521000D00680000080A1000090A10000A0A000A6
:10522000D006880091C0A900A1C0A800D0068000C7
:1052300000C0A10000D0A10000E0A000D0068800BE
:1052400091E0A900A1E0A80001E3A8000080FA0015
:10525000000006000400FA001007980041128000C8
:10526000010F78009E0090004112880000000000AD
:1052700000128000610060000000E000FCFF3200CE
:1052800041128000010F78001E0078000080FA00B3
:10529000000006000000FA001011800062006000AB
:1052A0000000E000020032002222A900D668EF00D0
:1052B00030468000610060000000E000160032000F
:1052C000D668EF00C608A900608F20001040780063
:1052D0006640400061000700618F20009140780027
:1052E0008180FB00E7804000028F2000E2C0780050
:1052F000814F500005003A00708F20001040780068
:105300000080FB006E0007002100370040012000F4
:105310006B0007001E00370030468000620060000E
:105320000000E0001A003200D0468000E60F500076
:1053300017003600C628A900D768EF00000000005B
:10534000D6C8BF000004E000FDFF3A0000000000E6
:105350002116800000022000008060000000E000B4
:10536000FBFF3A00C4A2A800000000001111800059
:1053700000102000008060000000E000FBFF320011
:10538000009F2000104078000080FB002011880062
:105390000080FA00000006000200FA00881F780072
:1053A000004F780011479800DA28EF001E80FB00BC
:1053B00068004000C0468800609F20001E487800BA
:1053C000709F20009E409000014878001E80FB00E6
:1053D000670440009E40780066C040000600070059
:1053E000019F200080707C00C628A8004F04780030
:1053F0000080FA00000006000600FA00404798000E
:105400000040EB00004F780060002000100798007B
:1054100008003700019F20001E009000008040001F
:10542000104078001E4F40001E0090000000E80071
:10543000100798004E4090000080FB000000E8003C
:10544000800078001E009000808F5000F1FF3E0029
:105450001E4078000080FA00000006000600FA00F6
:10546000404798000040EB00004F780060002000AB
:105470001007980008003700018F20001E009000E0
:1054800000804000104078001E4F40001E00900039
:105490000000E800100798004E4090000080FB00DC
:1054A0000000E800800078001E009000808F50000F
:1054B000F1FF3E001E4078000080FA000000060068
:1054C0000400FA00889FBE00100798001E0090009C
:1054D0006101B8000080EB008080EB00020040001A
:1054E000838048004205200003002000820F500006
:1054F000838F5800B1013E00006001005400370066
:10550000AE013700AD013700E9003700DB0037009E
:10551000AA013700A9013700A8013700A701370009
:10552000A6013700A5013700A4013700A301370009
:10553000A2013700A1013700A00137009F01370009
:105540009E0137009D0137009C0137009B01370009
:105550009A01370099013700980137009701370009
:105560009601370095013700940137009301370009
:105570009201370091013700070137008F01370092
:105580008E0137008D0137008C013700790137001B
:105590008A01370089013700880137008701370009
:1055A0008601370085013700840137008301370009
:1055B0008201370081013700800137007F01370009
:1055C000000137007D0137007C0137007B01370087
:1055D0007A01370079013700780137007701370009
:1055E0007601370075013700740137007301370009
:1055F0007201370071013700700137006F01370009
:105600006E0137006D013700620037006B01370013
:105610006A013700B6003700D40037006701370051
:105620006601370065013700640137006301370008
:105630006201370061013700600137005F01370008
:105640005E0137005D0137005C0137006B003700F9
:105650005043800080407800809F200001487800FF
:10566000E08520005001BE004000BE004818DE006A
:1056700080407800909F200001487800E08520005D
:105680005001BE004000BE0003007800804078005A
:10569000A09F200001487800E08520005001BE0056
:1056A0004000BE004810DE00481ADD000000720015
:1056B00080407800B09F200001487800E0852000FD
:1056C0005001BE004000BE0002007800804078001B
:1056D000C09F200001487800E08520005001BE00F6
:1056E0004000BE004808DE004812DD0000007200E5
:1056F00080407800D09F200001487800E08520009D
:105700005001BE004000BE000100780080407800DB
:10571000E09F200001487800E08520005001BE0095
:105720004000BE004800DE00480ADD0000007200B4
:1057300080407800F09F200001487800E08520003C
:105740005001BE004000BE008040780000A0200054
:1057500001487800B04580008040780010A020000B
:1057600001487800504680008040780020A020004A
:1057700001487800E04280008040780030A020009E
:105780000148780031C3B300D0C0B30002FF070066
:105790000D013700908F2000104078000080FB0042
:1057A00000478800004780004800DD00004788006F
:1057B000A08F2000104078008080FB000047800010
:1057C00000804000004788005A88A800808F200091
:1057D000104078000004E000020032005A48A8009F
:1057E000020037005A48A900E028EF0011C4B300B6
:1057F00010C0B300E8FE0700F300370011C4B30087
:1058000010C0B300E4FE070000000000D046800096
:10581000E30F5000FDFF3600C628A900000000007D
:10582000D6C8BF000004E000FDFF3A000000000001
:105830002116800000022000008060000000E000CF
:10584000FBFF3A00C4A2A8002342A800009F20004A
:10585000104078000080FB0020118800000000004C
:105860002116800000022000008060000000E0009F
:10587000FBFF3A000000FE00D3003700809F2000AD
:1058800011C0B30001487800909F20008040EB00D9
:1058900001487800A09F200061C0B3000148780053
:1058A00001C5B30040C0B300BBFE0700C60037000F
:1058B00050468000EF0F500009003200808F20001A
:1058C000104078000080FB00604788005B08A8005B
:1058D00011C4B30010C0B300AFFE0700BA00370018
:1058E00041C1B30010C0B300ABFE0700B6003700E3
:1058F000908F2000104078000080FB00104088004E
:10590000104080004800DD0010408800A08F20007B
:10591000104078008080FB00104080000080400034
:10592000104088001140800000CF2300808F50007D
:105930000200360000CF230010408800C828A800CD
:10594000808F2000104078000004E0000200320048
:105950005A08A800010037005A08A90011C4B30072
:1059600010C0B3008CFE070097003700808F200026
:10597000104078000004E000020032005BE8A8005C
:10598000010037005BE8A90011C4B30010C0B300E8
:1059900081FE07008C003700808F200010407800C7
:1059A0000004E000020032005B68A800010037003C
:1059B0005B68A90011C4B30010C0B30076FE0700F5
:1059C00081003700808F200010407800E14F4000B8
:1059D00064003200B08F20009040780050C9B300BE
:1059E00080CF50005F003E00808F20001040780084
:1059F0000080FB008000EB00027122000289B900E8
:105A0000020178006002B9008401780003014100BE
:105A1000037122000300B8000101410082007800F8
:105A20004A09DD004600DE0000007100C608DE0005
:105A30000000780060468800604680000009B100E0
:105A400060468800908F2000104078000080FB00A6
:105A500070468800704680004800DD00704688006F
:105A6000A08F2000104078008080FB0070468000EE
:105A70000080400070468800704680000000E00012
:105A80000800320071468000808F200010407800AE
:105A90000080FB000080500070468800C848A800C5
:105AA00003003700C848A900803E200070468800E7
:105AB000B08F2000104078000080FB001046880066
:105AC0005BA8A800C08F2000104078000080FB0079
:105AD000F046880011C4B30010C0B3002EFE0700CA
:105AE000104680008000EB00A0F207000004BE001A
:105AF000104680008000EB009CF20700A29929006C
:105B000093E92300EEF207000001BE000800BE008A
:105B1000B7F107007AF2070000007800004488001F
:105B2000104680008000EB0090F207000004BE00E9
:105B3000104680008000EB008CF20700A29929003B
:105B400093E92300DEF207000001BE000800BE005A
:105B5000A6F107006AF207000000780010448800F0
:105B60001900370041C1B30010C0B3000AFE07009E
:105B7000150037000040EB00004F780008003700A8
:105B80001E80FB00680040009E80FB0002B72000E2
:105B900062C17800019F2000827078001E4FE800EB
:105BA0001E407800FF4F5000F5FF360021C5B300BE
:105BB00010C2B300F8FD07000300370041C1B30075
:105BC00010C0B300F4FD07004F04BE000080FA00CF
:105BD000000006000200FA00889FBE00004080001E
:105BE000E50F50003C003A000028EF006000B800CC
:105BF00050408800614088000000EB00000F7800F2
:105C0000100037001E0078008000400060BD2000BA
:105C100000804000100078008000EB0053F2070085
:105C20000002BE0050408000614080000001BE00C4
:105C30000400BE006EF107005040880061408800FB
:105C40001E0FE8001E007800E40F5000EDFF360044
:105C5000504080006140800002002000030A2400C0
:105C6000C0F10700D2CC2C00C304240094F207003A
:105C70007040880081408800704080008140800032
:105C800002002000431A24008DF207000004BE0029
:105C900070408000814080000001BE0000002400B0
:105CA000C159240051F1070002002000A34724003D
:105CB000ACF107000001BE000800BE00A9F107001A
:105CC000504088006140880039010700304088005A
:105CD000414088005AC8A800404680006200600029
:105CE0000000E0000F003200104080008000EB0058
:105CF0001EF2070002002000A347240099F10700CC
:105D0000EE000700D0428000610060000000E0006B
:105D100002003200C5E2A80001003700C5E2A90078
:105D2000C828A90020408000E10F50001500320073
:105D3000E10F500005003900E20F50001C00320056
:105D4000E30F5000230032005D00370030332300A2
:105D500031F323005041880061418800D0CC2C00F1
:105D6000C1DC230070418800814188006000B800D8
:105D700090418800A1418800100020002040880048
:105D80004F003700D0428000610060000000E0005A
:105D900046003200104080000000E00045003A005C
:105DA000C5E2A80020002000204088004400370001
:105DB000D142800000042000008060000000E0006C
:105DC0003E0032005AC8A900300020002040880060
:105DD0003B003700D0428000610060000000E0001E
:105DE0002E0032003040800041408000B0408800EA
:105DF000C14088005B000700D0408000E140800087
:105E000018C0B3000200200003042C0097F1070023
:105E10000000E000010035000044EB000804E00051
:105E200018003200D0408000E140800001F0A20064
:105E30007040880081408800704080008140800070
:105E400018C0B300A29929009317240089F1070014
:105E50000000E00001003C000044EB000804E0000A
:105E600004003200A0992900911724007040880096
:105E70008140880070408000814080008F000700D2
:105E800001003700C5E2A900C868A8002000200072
:105E9000204088000000000009003700C5E2A9008A
:105EA0005A08A9000428EF00050037000000000090
:105EB0000300370000000000010037000000000070
:105EC00041458000C0122000808F50002200360023
:105ED000A828EF0000000000304680006400600049
:105EE0000000E000FCFF3200DD42A800DD22A90036
:105EF00000002C00D7FC0700000F78001E0078007F
:105F00000000D100000F7800C04180001E0040005A
:105F10000000D100C0418800DD22A800DD42A900B8
:105F2000DD42A800DD22A90000002E00C9FC070008
:105F3000000F78001E0078000000D100000F7800EC
:105F4000B04180001E0040000000D100B041880038
:105F5000DD22A800DD42A9004F04BE000080FA0047
:105F6000000006000800FA00889FBE00F440800090
:105F700005418000B0408000C14080000001BE00AB
:105F80000400BE0099F00700008FBE0010418000A1
:105F9000214180001E01BE0095F0070010418800DD
:105FA00021418800104180002141800018C0B300C9
:105FB00002002000032F24002EF107000000E00063
:105FC00001003C000044EB000804E0000500320042
:105FD00000002000012F240010418800214188008A
:105FE0000F003700104180002141800018C0B3002D
:105FF00002002000032F2C001CF107000000E0002D
:10600000010035000044EB000804E0000400320009
:1060100000002000012F2C00104188002141880041
:1060200030418000414180000001BE001E00BE00E2
:106030006EF007002007980031079800504180005B
:10604000614180001E01BE009DF107000004BE00FA
:106050007441800085418000104180002141800012
:106060000001BE000400BE0095F107000001BE0063
:106070000800BE005EF007000004BE0090418000F2
:10608000A14180002E019000BE0190008CF107001C
:106090000001BE000800BE0055F00700D040880097
:1060A000E14088001E01BE00324188004341880063
:1060B0004F04BE000080FA00000006000600FA004F
:1060C000881F780010079800210798001E01900093
:1060D000AE019000F0512800D11A240043F00700CF
:1060E000E24F2D00030824009EF0070082862E0058
:1060F000F3B923009BF007001007980021079800D0
:1061000018C0B30002002C00F34724001E009000CA
:10611000AE009000D7F007000000E00001003C0056
:106120000044EB000804E0000400320000002C00F2
:10613000F147240010079800210798001E009000E6
:10614000AE009000CDF0070000007800000F78004E
:106150001E0078004200DD00000F780000002100E2
:106160001E0F400000000000304680006400600008
:106170000000E000FCFF3200DD42A800DD02A900C3
:106180001E00780033FC0700DD02A800DD42A900F4
:10619000D0428000610060000000E0000100320099
:1061A000C5E2A8004F0478000080FA000000060055
:1061B0000E00FA00889FBE000000EB002007980048
:1061C000690037002E0090004300DD00E40040002D
:1061D000C0472900008040001002BE0050408000EF
:1061E000614080000001BE000400BE009FF0070077
:1061F0000000E00007003A002E009000C300DD0020
:10620000C047290000804000301F78002017780028
:10621000590037002E0090004300DD00E4004000EC
:10622000C0472900008040001002BE00504080009E
:106230006140800018C0B3000001BE000400BE0031
:106240008AF007000000E000010035000044EB0088
:106250000804E000410032002E0090000000E90038
:106260004300DD00E4004000C047290000804000FA
:106270001002BE002E0090004300DD00E40040004C
:10628000C0472900008040001000BE000001BE0091
:106290000400BE00D5EF07000004BE002E009000F1
:1062A0000000E900C300DD00C04729000080400075
:1062B0001002BE002E009000C300DD00C047290080
:1062C000008040001000BE000001BE000400BE00BF
:1062D000C6EF07000001BE000800BE0021F0070065
:1062E00030079800410798002E0090004300DD0021
:1062F000E4004000C0472900008040001004BE00B8
:106300002E009000C300DD00C0472900008040003F
:106310001000BE003E019000CE019000E8F00700A2
:106320000001BE000800BE00B0EF07005007980053
:106330006107980050408000614080005E0190003D
:10634000EE019000A9EF07003E019000CE01900001
:1063500004F00700008FBE00070037002E009000F9
:106360000000E80020079800AE0090002003200005
:10637000808F500093FF36001E00BE004F04BE0009
:106380000080FA00000006000000FA00D142800000
:1063900000202000008060000000E0005400320077
:1063A000D0458000E10F500012003200E10F500094
:1063B00005003900E20F500021003200E30F5000C9
:1063C000280032004A003700111780000008200022
:1063D000008060000000E00004003200B228EF00FE
:1063E00010002000D045880041003700C888A80070
:1063F0003F00370090458000EF0F50003500360019
:106400001117800000082000008060000000E000FC
:1064100009003200C888A9005B08A800F00020002D
:106420006047880050022000E042880020002000E1
:10643000D04588002E003700BA28EF002C00370026
:106440001117800000082000008060000000E000BC
:1064500022003A00B228EF0030002000D04588002A
:106460002300370091458000401F2000808F50009E
:106470001C0036001117800000082000008060001A
:106480000000E00019003A00E142800050022000C4
:10649000808F50000D003A00C928A8005B08A800B2
:1064A00010002000604788005C28EF00B228EF0051
:1064B0005B28A900B028EF0010002000704588007C
:1064C00010002000D045880009003700BA28EF00EE
:1064D0000700370000000000050037000000000042
:1064E000030037000000000001003700000000003A
:1064F0000080FA00000006000000FA00514680000B
:1065000050052000808F50004E0032007045800002
:10651000E10F500012003200E10F50000500390079
:10652000E20F500021003200E30F5000280032003B
:1065300044003700911780000004200000806000B4
:106540000000E00004003200B028EF00100020003E
:10655000704588003B0037005B28A80039003700F1
:1065600080458000EF0F50002D003600911780000D
:1065700000042000008060000000E00009003200FC
:106580005B28A9005B08A800F00020006047880095
:10659000A0012000E0428800200020007045880013
:1065A00028003700AE28EF00260037009117800042
:1065B00000042000008060000000E0001A003A00A3
:1065C000B028EF0030002000704588001D00370023
:1065D00081458000401F2000808F5000140036004D
:1065E0009117800000042000008060000000E0009F
:1065F00011003A00E0428000FA0F500010003A000B
:106600005B08A80010002000604788005C28EF00AD
:10661000B028EF0010002000704588000900370006
:1066200000000000070037000000000005003700F0
:1066300000000000030037000000000001003700E8
:10664000000000000080FA00000006000000FA00D0
:10665000B0458000E10F500005003A005046800030
:10666000F00F500002003A0030002000A0458800E2
:10667000A0458000E20F500066003200E20F50009B
:1066800005003E000000E0000A003200E10F50006B
:106690004D003200A0003700E40F50002600320009
:1066A000E40F500066003900E50F50007B00320017
:1066B00099003700D0168000640060000000E00000
:1066C00008003A00D0168000620060000000E00080
:1066D00004003A00B828EF0010002000A045880010
:1066E0008D003700B628EF00D016800064006000EF
:1066F0000000E00004003200D0168000620060005C
:106700000000E00008003200D01680006400600045
:106710000000E00071003A00D016800062006000C6
:106720000000E0006F003200B828EF0040002000B9
:10673000A045880078003700D01680006400600013
:106740000000E00008003A00D016800062006000FF
:106750000000E00004003A00B828EF00100020001C
:10676000A045880017003700D01680006400600044
:106770000000E00007003200D016800062006000D8
:106780000000E00003003200B428EF00B628EF005C
:106790000C003700C1458000C0DA2000808F500017
:1067A000520036005B08A800F00020006047880017
:1067B00020022000E042880050002000A045880010
:1067C0005500370054003700C0458000EF0F5000DF
:1067D00048003600D0168000640060000000E00031
:1067E00009003A00D0168000620060000000E0005E
:1067F00005003A0010002000B0458800200020006D
:10680000A045880044003700B628EF00B428EF0008
:1068100041003700D0168000640060000000E000F6
:1068200004003A00D0168000620060000000E00022
:1068300032003200B428EF00B628EF0036003700EF
:1068400050468000F50F500005003A005B08A80094
:10685000F00020006047880080022000E0428800AD
:10686000D0168000640060000000E00004003A00E0
:10687000D0168000620060000000E00021003200BD
:10688000B428EF00B628EF005B08A8000001200044
:10689000604788005C28EF001F003700D01680009A
:1068A000640060000000E00018003200D016800094
:1068B000620060000000E00016003200B428EF0023
:1068C000B428EF00B628EF005B08A8000001200004
:1068D000604788005C28EF000F00370000000000D0
:1068E0000D003700000000000B0037000000000022
:1068F000090037000000000007003700000000001A
:106900000500370000000000030037000000000011
:1069100001003700000000000080FA0000000600BF
:106920000600FA00881F7800A1468000803E200003
:10693000808F500002003600D428EF000AA3A80080
:1069400090468000E50F50002C003A00D228EF005E
:106950006000B80040478800514788000000EB0005
:10696000000F7800100037001E0078008000400003
:1069700000BE200000804000100078008000EB0086
:10698000FAEE07000002BE00404780005147800039
:106990000001BE000400BE0015EE0700404788005D
:1069A000514788001E0FE8001E007800E40F5000D9
:1069B000EDFF360040478000514780000200200074
:1069C000030A240067EE07001007980021079800CB
:1069D000D2CC2C00C30424001E009000AE00900016
:1069E00037EF070002002000031224005DEE0700CD
:1069F00040478800514788005AA8A8008046800078
:106A0000E20F500017003200E20F500005003E0078
:106A10000000E00006003200E10F500009003200E3
:106A200009013700E30F5000DD0032000601370096
:106A300080912700302288001000200080468800C6
:106A400001013700D1428000000220000080600078
:106A50000000E000F700320020002000804688009F
:106A6000F90037005AA8A9001000200080468800CD
:106A7000404780005147800018C0B3006011B80043
:106A80007CEE07000000E00001003D000044EB0048
:106A90000804E000130032004047800051478000A6
:106AA00018C0B30002002000031224006FEE07009C
:106AB0000000E000010034000044EB000804E000A6
:106AC00008003200B0012000E04288005B08A80006
:106AD000F0002000604788004000200080468800C9
:106AE000AE003700404780005147800018C0B30017
:106AF00002002000031324005EEE07000000E00007
:106B000001003D000044EB000804E0000E003200EC
:106B1000404780005147800018C0B30002002000A9
:106B20004320240051EE07000000E0000100340083
:106B30000044EB000804E00003003200000E2600D1
:106B40003022880095003700404780005147800080
:106B500018C0B300020020008320240045EE070087
:106B60000000E00001003D000044EB000804E000EC
:106B70000E003200404780005147800018C0B3002B
:106B8000020020008321240038EE07000000E0000E
:106B9000010034000044EB000804E0000300320070
:106BA000000E2600302288007C003700404780001D
:106BB0005147800018C0B30002002000C321240008
:106BC0002CEE07000000E00001003D000044EB0057
:106BD0000804E0000E00320040478000514780006A
:106BE00018C0B30002002000C32224001FEE0700DB
:106BF0000000E000010034000044EB000804E00065
:106C000003003200000E26003022880063003700A7
:106C1000404780005147800018C0B30002002000A8
:106C20000323240013EE07000000E00001003D00F4
:106C30000044EB000804E0000E00320040478000F2
:106C40005147800018C0B300020020000324240034
:106C500006EE07000000E000010034000044EB00F5
:106C60000804E00003003200000E260030228800F5
:106C70004A003700404780005147800018C0B300E9
:106C80000200200043242400FAED07000000E00089
:106C900001003D000044EB000804E0000E0032005B
:106CA000404780005147800018C0B3000200200018
:106CB00043252400EDED07000000E0000100340052
:106CC0000044EB000804E00003003200809127003C
:106CD0003022880031003700404780005147800053
:106CE00018C0B3000200200083252400E1ED070056
:106CF0000000E00001003D000044EB000804E0005B
:106D000013003200404780005147800018C0B30094
:106D10000200200023282400D4ED07000000E0003A
:106D2000010034000044EB000804E00008003200D9
:106D3000E0012000E04288005B08A800F00020008D
:106D4000604788003000200080468800130037002C
:106D5000404780005147800018C0B3000200200067
:106D600043282400C3ED07000000E00001003D00BF
:106D70000044EB000804E00030003200B0012000C5
:106D8000E04288005B08A800F0002000604788000F
:106D900040002000804688002B0037002A00370082
:106DA000404780005147800018C0B3000200200017
:106DB00003232400ADED07000000E00001003400D3
:106DC0000044EB000804E000070032005B08A80064
:106DD00000012000604788005C28EF0020002000B0
:106DE00080468800180037004047800051478000E7
:106DF00018C0B30002002000432824009DED0700C6
:106E00000000E00001003D000044EB000804E00049
:106E10000C003200B0012000E04288005B08A800AE
:106E2000F000200060478800400020008046880075
:106E300005003700000000000300370000000000DC
:106E400001003700000000004F0478000080FA00C5
:106E5000000006000200FA00000F78001E00780013
:106E60004200DD00000F7800000021001E0F4000EE
:106E70000000000030468000640060000000E00078
:106E8000FCFF3200DD62A800DC02A900014780009F
:106E9000F03F2000808F500002003600F03F2000BD
:106EA000004788001E007800EAF80700DC02A8000E
:106EB000DD62A9000080FA00000006000200FA006E
:106EC000D0428000700060000000E0000800320046
:106ED000D0428000640060000000E00001003A0041
